{
	"contracts/crypto_kids.sol": {
		"CryptoKids": {
			"abi": [
				{
					"inputs": [],
					"stateMutability": "nonpayable",
					"type": "constructor"
				},
				{
					"anonymous": false,
					"inputs": [
						{
							"indexed": false,
							"internalType": "address",
							"name": "addr",
							"type": "address"
						},
						{
							"indexed": false,
							"internalType": "uint256",
							"name": "amount",
							"type": "uint256"
						},
						{
							"indexed": false,
							"internalType": "uint256",
							"name": "contractBalnce",
							"type": "uint256"
						}
					],
					"name": "logKidFundingReceived",
					"type": "event"
				},
				{
					"inputs": [
						{
							"internalType": "address payable",
							"name": "walletAddress",
							"type": "address"
						},
						{
							"internalType": "string",
							"name": "firstName",
							"type": "string"
						},
						{
							"internalType": "string",
							"name": "lastName",
							"type": "string"
						},
						{
							"internalType": "uint256",
							"name": "releaseTime",
							"type": "uint256"
						},
						{
							"internalType": "uint256",
							"name": "amount",
							"type": "uint256"
						},
						{
							"internalType": "bool",
							"name": "canWithdraw",
							"type": "bool"
						}
					],
					"name": "addKid",
					"outputs": [],
					"stateMutability": "nonpayable",
					"type": "function"
				},
				{
					"inputs": [
						{
							"internalType": "address",
							"name": "walletAddress",
							"type": "address"
						}
					],
					"name": "availableToWithdraw",
					"outputs": [
						{
							"internalType": "bool",
							"name": "",
							"type": "bool"
						}
					],
					"stateMutability": "nonpayable",
					"type": "function"
				},
				{
					"inputs": [],
					"name": "balanceOf",
					"outputs": [
						{
							"internalType": "uint256",
							"name": "",
							"type": "uint256"
						}
					],
					"stateMutability": "view",
					"type": "function"
				},
				{
					"inputs": [
						{
							"internalType": "address",
							"name": "walletAddress",
							"type": "address"
						}
					],
					"name": "deposit",
					"outputs": [],
					"stateMutability": "payable",
					"type": "function"
				},
				{
					"inputs": [
						{
							"internalType": "uint256",
							"name": "",
							"type": "uint256"
						}
					],
					"name": "kids",
					"outputs": [
						{
							"internalType": "address payable",
							"name": "walletAddress",
							"type": "address"
						},
						{
							"internalType": "string",
							"name": "firstName",
							"type": "string"
						},
						{
							"internalType": "string",
							"name": "lastName",
							"type": "string"
						},
						{
							"internalType": "uint256",
							"name": "releaseTime",
							"type": "uint256"
						},
						{
							"internalType": "uint256",
							"name": "amount",
							"type": "uint256"
						},
						{
							"internalType": "bool",
							"name": "canWithdraw",
							"type": "bool"
						}
					],
					"stateMutability": "view",
					"type": "function"
				},
				{
					"inputs": [
						{
							"internalType": "address payable",
							"name": "walletAddress",
							"type": "address"
						}
					],
					"name": "withdraw",
					"outputs": [],
					"stateMutability": "payable",
					"type": "function"
				}
			],
			"devdoc": {
				"kind": "dev",
				"methods": {},
				"version": 1
			},
			"evm": {
				"assembly": "    /* \"contracts/crypto_kids.sol\":58:2710  contract CryptoKids {... */\n  mstore(0x40, 0x80)\n    /* \"contracts/crypto_kids.sol\":203:253  constructor () {... */\n  callvalue\n  dup1\n  iszero\n  tag_1\n  jumpi\n  0x00\n  dup1\n  revert\ntag_1:\n  pop\n    /* \"contracts/crypto_kids.sol\":236:246  msg.sender */\n  caller\n    /* \"contracts/crypto_kids.sol\":228:233  owner */\n  0x00\n  dup1\n    /* \"contracts/crypto_kids.sol\":228:246  owner = msg.sender */\n  0x0100\n  exp\n  dup2\n  sload\n  dup2\n  0xffffffffffffffffffffffffffffffffffffffff\n  mul\n  not\n  and\n  swap1\n  dup4\n  0xffffffffffffffffffffffffffffffffffffffff\n  and\n  mul\n  or\n  swap1\n  sstore\n  pop\n    /* \"contracts/crypto_kids.sol\":58:2710  contract CryptoKids {... */\n  dataSize(sub_0)\n  dup1\n  dataOffset(sub_0)\n  0x00\n  codecopy\n  0x00\n  return\nstop\n\nsub_0: assembly {\n        /* \"contracts/crypto_kids.sol\":58:2710  contract CryptoKids {... */\n      mstore(0x40, 0x80)\n      jumpi(tag_1, lt(calldatasize, 0x04))\n      shr(0xe0, calldataload(0x00))\n      dup1\n      0x31d575c5\n      eq\n      tag_2\n      jumpi\n      dup1\n      0x51cff8d9\n      eq\n      tag_3\n      jumpi\n      dup1\n      0x722713f7\n      eq\n      tag_4\n      jumpi\n      dup1\n      0x7285fd3a\n      eq\n      tag_5\n      jumpi\n      dup1\n      0xa25db8ce\n      eq\n      tag_6\n      jumpi\n      dup1\n      0xf340fa01\n      eq\n      tag_7\n      jumpi\n    tag_1:\n      0x00\n      dup1\n      revert\n        /* \"contracts/crypto_kids.sol\":655:997  function addKid(address payable walletAddress,string memory firstName,string memory lastName,uint releaseTime,uint amount,bool canWithdraw) public onlyOwner {... */\n    tag_2:\n      callvalue\n      dup1\n      iszero\n      tag_8\n      jumpi\n      0x00\n      dup1\n      revert\n    tag_8:\n      pop\n      tag_9\n      0x04\n      dup1\n      calldatasize\n      sub\n      dup2\n      add\n      swap1\n      tag_10\n      swap2\n      swap1\n      tag_11\n      jump\t// in\n    tag_10:\n      tag_12\n      jump\t// in\n    tag_9:\n      stop\n        /* \"contracts/crypto_kids.sol\":2350:2707  function withdraw(address payable walletAddress) payable public {... */\n    tag_3:\n      tag_13\n      0x04\n      dup1\n      calldatasize\n      sub\n      dup2\n      add\n      swap1\n      tag_14\n      swap2\n      swap1\n      tag_15\n      jump\t// in\n    tag_14:\n      tag_16\n      jump\t// in\n    tag_13:\n      stop\n        /* \"contracts/crypto_kids.sol\":1003:1097  function balanceOf () public view returns (uint) {... */\n    tag_4:\n      callvalue\n      dup1\n      iszero\n      tag_17\n      jumpi\n      0x00\n      dup1\n      revert\n    tag_17:\n      pop\n      tag_18\n      tag_19\n      jump\t// in\n    tag_18:\n      mload(0x40)\n      tag_20\n      swap2\n      swap1\n      tag_21\n      jump\t// in\n    tag_20:\n      mload(0x40)\n      dup1\n      swap2\n      sub\n      swap1\n      return\n        /* \"contracts/crypto_kids.sol\":473:490  Kid[] public kids */\n    tag_5:\n      callvalue\n      dup1\n      iszero\n      tag_22\n      jumpi\n      0x00\n      dup1\n      revert\n    tag_22:\n      pop\n      tag_23\n      0x04\n      dup1\n      calldatasize\n      sub\n      dup2\n      add\n      swap1\n      tag_24\n      swap2\n      swap1\n      tag_25\n      jump\t// in\n    tag_24:\n      tag_26\n      jump\t// in\n    tag_23:\n      mload(0x40)\n      tag_27\n      swap7\n      swap6\n      swap5\n      swap4\n      swap3\n      swap2\n      swap1\n      tag_28\n      jump\t// in\n    tag_27:\n      mload(0x40)\n      dup1\n      swap2\n      sub\n      swap1\n      return\n        /* \"contracts/crypto_kids.sol\":1902:2310  function availableToWithdraw(address walletAddress) public  returns(bool){... */\n    tag_6:\n      callvalue\n      dup1\n      iszero\n      tag_29\n      jumpi\n      0x00\n      dup1\n      revert\n    tag_29:\n      pop\n      tag_30\n      0x04\n      dup1\n      calldatasize\n      sub\n      dup2\n      add\n      swap1\n      tag_31\n      swap2\n      swap1\n      tag_32\n      jump\t// in\n    tag_31:\n      tag_33\n      jump\t// in\n    tag_30:\n      mload(0x40)\n      tag_34\n      swap2\n      swap1\n      tag_35\n      jump\t// in\n    tag_34:\n      mload(0x40)\n      dup1\n      swap2\n      sub\n      swap1\n      return\n        /* \"contracts/crypto_kids.sol\":1172:1278  function deposit (address walletAddress) payable  public {... */\n    tag_7:\n      tag_36\n      0x04\n      dup1\n      calldatasize\n      sub\n      dup2\n      add\n      swap1\n      tag_37\n      swap2\n      swap1\n      tag_32\n      jump\t// in\n    tag_37:\n      tag_38\n      jump\t// in\n    tag_36:\n      stop\n        /* \"contracts/crypto_kids.sol\":655:997  function addKid(address payable walletAddress,string memory firstName,string memory lastName,uint releaseTime,uint amount,bool canWithdraw) public onlyOwner {... */\n    tag_12:\n        /* \"contracts/crypto_kids.sol\":550:555  owner */\n      0x00\n      dup1\n      sload\n      swap1\n      0x0100\n      exp\n      swap1\n      div\n      0xffffffffffffffffffffffffffffffffffffffff\n      and\n        /* \"contracts/crypto_kids.sol\":536:555  msg.sender == owner */\n      0xffffffffffffffffffffffffffffffffffffffff\n      and\n        /* \"contracts/crypto_kids.sol\":536:546  msg.sender */\n      caller\n        /* \"contracts/crypto_kids.sol\":536:555  msg.sender == owner */\n      0xffffffffffffffffffffffffffffffffffffffff\n      and\n      eq\n        /* \"contracts/crypto_kids.sol\":528:603  require(msg.sender == owner,\"Only the owner can add kids to this contract\") */\n      tag_40\n      jumpi\n      mload(0x40)\n      0x08c379a000000000000000000000000000000000000000000000000000000000\n      dup2\n      mstore\n      0x04\n      add\n      tag_41\n      swap1\n      tag_42\n      jump\t// in\n    tag_41:\n      mload(0x40)\n      dup1\n      swap2\n      sub\n      swap1\n      revert\n    tag_40:\n        /* \"contracts/crypto_kids.sol\":822:826  kids */\n      0x01\n        /* \"contracts/crypto_kids.sol\":832:978  Kid(... */\n      mload(0x40)\n      dup1\n      0xc0\n      add\n      0x40\n      mstore\n      dup1\n        /* \"contracts/crypto_kids.sol\":849:862  walletAddress */\n      dup9\n        /* \"contracts/crypto_kids.sol\":832:978  Kid(... */\n      0xffffffffffffffffffffffffffffffffffffffff\n      and\n      dup2\n      mstore\n      0x20\n      add\n        /* \"contracts/crypto_kids.sol\":876:885  firstName */\n      dup8\n        /* \"contracts/crypto_kids.sol\":832:978  Kid(... */\n      dup2\n      mstore\n      0x20\n      add\n        /* \"contracts/crypto_kids.sol\":899:907  lastName */\n      dup7\n        /* \"contracts/crypto_kids.sol\":832:978  Kid(... */\n      dup2\n      mstore\n      0x20\n      add\n        /* \"contracts/crypto_kids.sol\":921:932  releaseTime */\n      dup6\n        /* \"contracts/crypto_kids.sol\":832:978  Kid(... */\n      dup2\n      mstore\n      0x20\n      add\n        /* \"contracts/crypto_kids.sol\":946:952  amount */\n      dup5\n        /* \"contracts/crypto_kids.sol\":832:978  Kid(... */\n      dup2\n      mstore\n      0x20\n      add\n        /* \"contracts/crypto_kids.sol\":966:977  canWithdraw */\n      dup4\n        /* \"contracts/crypto_kids.sol\":832:978  Kid(... */\n      iszero\n      iszero\n      dup2\n      mstore\n      pop\n        /* \"contracts/crypto_kids.sol\":822:979  kids.push(Kid(... */\n      swap1\n      dup1\n      0x01\n      dup2\n      sload\n      add\n      dup1\n      dup3\n      sstore\n      dup1\n      swap2\n      pop\n      pop\n      0x01\n      swap1\n      sub\n      swap1\n      0x00\n      mstore\n      keccak256(0x00, 0x20)\n      swap1\n      0x06\n      mul\n      add\n      0x00\n      swap1\n      swap2\n      swap1\n      swap2\n      swap1\n      swap2\n      pop\n      0x00\n      dup3\n      add\n      mload\n      dup2\n      0x00\n      add\n      exp(0x0100, 0x00)\n      dup2\n      sload\n      dup2\n      0xffffffffffffffffffffffffffffffffffffffff\n      mul\n      not\n      and\n      swap1\n      dup4\n      0xffffffffffffffffffffffffffffffffffffffff\n      and\n      mul\n      or\n      swap1\n      sstore\n      pop\n      0x20\n      dup3\n      add\n      mload\n      dup2\n      0x01\n      add\n      swap1\n      dup2\n      tag_45\n      swap2\n      swap1\n      tag_46\n      jump\t// in\n    tag_45:\n      pop\n      0x40\n      dup3\n      add\n      mload\n      dup2\n      0x02\n      add\n      swap1\n      dup2\n      tag_47\n      swap2\n      swap1\n      tag_46\n      jump\t// in\n    tag_47:\n      pop\n      0x60\n      dup3\n      add\n      mload\n      dup2\n      0x03\n      add\n      sstore\n      0x80\n      dup3\n      add\n      mload\n      dup2\n      0x04\n      add\n      sstore\n      0xa0\n      dup3\n      add\n      mload\n      dup2\n      0x05\n      add\n      exp(0x0100, 0x00)\n      dup2\n      sload\n      dup2\n      0xff\n      mul\n      not\n      and\n      swap1\n      dup4\n      iszero\n      iszero\n      mul\n      or\n      swap1\n      sstore\n      pop\n      pop\n      pop\n        /* \"contracts/crypto_kids.sol\":655:997  function addKid(address payable walletAddress,string memory firstName,string memory lastName,uint releaseTime,uint amount,bool canWithdraw) public onlyOwner {... */\n      pop\n      pop\n      pop\n      pop\n      pop\n      pop\n      jump\t// out\n        /* \"contracts/crypto_kids.sol\":2350:2707  function withdraw(address payable walletAddress) payable public {... */\n    tag_16:\n        /* \"contracts/crypto_kids.sol\":2424:2430  uint i */\n      0x00\n        /* \"contracts/crypto_kids.sol\":2433:2456  getIndex(walletAddress) */\n      tag_49\n        /* \"contracts/crypto_kids.sol\":2442:2455  walletAddress */\n      dup3\n        /* \"contracts/crypto_kids.sol\":2433:2441  getIndex */\n      tag_50\n        /* \"contracts/crypto_kids.sol\":2433:2456  getIndex(walletAddress) */\n      jump\t// in\n    tag_49:\n        /* \"contracts/crypto_kids.sol\":2424:2456  uint i = getIndex(walletAddress) */\n      swap1\n      pop\n        /* \"contracts/crypto_kids.sol\":2489:2493  kids */\n      0x01\n        /* \"contracts/crypto_kids.sol\":2494:2495  i */\n      dup2\n        /* \"contracts/crypto_kids.sol\":2489:2496  kids[i] */\n      dup2\n      sload\n      dup2\n      lt\n      tag_51\n      jumpi\n      tag_52\n      tag_53\n      jump\t// in\n    tag_52:\n    tag_51:\n      swap1\n      0x00\n      mstore\n      keccak256(0x00, 0x20)\n      swap1\n      0x06\n      mul\n      add\n        /* \"contracts/crypto_kids.sol\":2489:2510  kids[i].walletAddress */\n      0x00\n      add\n      0x00\n      swap1\n      sload\n      swap1\n      0x0100\n      exp\n      swap1\n      div\n      0xffffffffffffffffffffffffffffffffffffffff\n      and\n        /* \"contracts/crypto_kids.sol\":2475:2510  msg.sender == kids[i].walletAddress */\n      0xffffffffffffffffffffffffffffffffffffffff\n      and\n        /* \"contracts/crypto_kids.sol\":2475:2485  msg.sender */\n      caller\n        /* \"contracts/crypto_kids.sol\":2475:2510  msg.sender == kids[i].walletAddress */\n      0xffffffffffffffffffffffffffffffffffffffff\n      and\n      eq\n        /* \"contracts/crypto_kids.sol\":2466:2549  require (msg.sender == kids[i].walletAddress,\"You can only withdraw you own Ether\") */\n      tag_55\n      jumpi\n      mload(0x40)\n      0x08c379a000000000000000000000000000000000000000000000000000000000\n      dup2\n      mstore\n      0x04\n      add\n      tag_56\n      swap1\n      tag_57\n      jump\t// in\n    tag_56:\n      mload(0x40)\n      dup1\n      swap2\n      sub\n      swap1\n      revert\n    tag_55:\n        /* \"contracts/crypto_kids.sol\":2590:2594  true */\n      0x01\n        /* \"contracts/crypto_kids.sol\":2567:2594  kids[i].canWithdraw == true */\n      iszero\n      iszero\n        /* \"contracts/crypto_kids.sol\":2567:2571  kids */\n      0x01\n        /* \"contracts/crypto_kids.sol\":2572:2573  i */\n      dup3\n        /* \"contracts/crypto_kids.sol\":2567:2574  kids[i] */\n      dup2\n      sload\n      dup2\n      lt\n      tag_58\n      jumpi\n      tag_59\n      tag_53\n      jump\t// in\n    tag_59:\n    tag_58:\n      swap1\n      0x00\n      mstore\n      keccak256(0x00, 0x20)\n      swap1\n      0x06\n      mul\n      add\n        /* \"contracts/crypto_kids.sol\":2567:2586  kids[i].canWithdraw */\n      0x05\n      add\n      0x00\n      swap1\n      sload\n      swap1\n      0x0100\n      exp\n      swap1\n      div\n      0xff\n      and\n        /* \"contracts/crypto_kids.sol\":2567:2594  kids[i].canWithdraw == true */\n      iszero\n      iszero\n      eq\n        /* \"contracts/crypto_kids.sol\":2559:2643  require(kids[i].canWithdraw == true,\"You aren't permitted to withdraw at this time\") */\n      tag_61\n      jumpi\n      mload(0x40)\n      0x08c379a000000000000000000000000000000000000000000000000000000000\n      dup2\n      mstore\n      0x04\n      add\n      tag_62\n      swap1\n      tag_63\n      jump\t// in\n    tag_62:\n      mload(0x40)\n      dup1\n      swap2\n      sub\n      swap1\n      revert\n    tag_61:\n        /* \"contracts/crypto_kids.sol\":2653:2657  kids */\n      0x01\n        /* \"contracts/crypto_kids.sol\":2658:2659  i */\n      dup2\n        /* \"contracts/crypto_kids.sol\":2653:2660  kids[i] */\n      dup2\n      sload\n      dup2\n      lt\n      tag_64\n      jumpi\n      tag_65\n      tag_53\n      jump\t// in\n    tag_65:\n    tag_64:\n      swap1\n      0x00\n      mstore\n      keccak256(0x00, 0x20)\n      swap1\n      0x06\n      mul\n      add\n        /* \"contracts/crypto_kids.sol\":2653:2674  kids[i].walletAddress */\n      0x00\n      add\n      0x00\n      swap1\n      sload\n      swap1\n      0x0100\n      exp\n      swap1\n      div\n      0xffffffffffffffffffffffffffffffffffffffff\n      and\n        /* \"contracts/crypto_kids.sol\":2653:2683  kids[i].walletAddress.transfer */\n      0xffffffffffffffffffffffffffffffffffffffff\n      and\n        /* \"contracts/crypto_kids.sol\":2653:2699  kids[i].walletAddress.transfer(kids[i].amount) */\n      0x08fc\n        /* \"contracts/crypto_kids.sol\":2684:2688  kids */\n      0x01\n        /* \"contracts/crypto_kids.sol\":2689:2690  i */\n      dup4\n        /* \"contracts/crypto_kids.sol\":2684:2691  kids[i] */\n      dup2\n      sload\n      dup2\n      lt\n      tag_67\n      jumpi\n      tag_68\n      tag_53\n      jump\t// in\n    tag_68:\n    tag_67:\n      swap1\n      0x00\n      mstore\n      keccak256(0x00, 0x20)\n      swap1\n      0x06\n      mul\n      add\n        /* \"contracts/crypto_kids.sol\":2684:2698  kids[i].amount */\n      0x04\n      add\n      sload\n        /* \"contracts/crypto_kids.sol\":2653:2699  kids[i].walletAddress.transfer(kids[i].amount) */\n      swap1\n      dup2\n      iszero\n      mul\n      swap1\n      mload(0x40)\n      0x00\n      mload(0x40)\n      dup1\n      dup4\n      sub\n      dup2\n      dup6\n      dup9\n      dup9\n      call\n      swap4\n      pop\n      pop\n      pop\n      pop\n      iszero\n      dup1\n      iszero\n      tag_71\n      jumpi\n      returndatasize\n      0x00\n      dup1\n      returndatacopy\n      revert(0x00, returndatasize)\n    tag_71:\n      pop\n        /* \"contracts/crypto_kids.sol\":2414:2707  {... */\n      pop\n        /* \"contracts/crypto_kids.sol\":2350:2707  function withdraw(address payable walletAddress) payable public {... */\n      pop\n      jump\t// out\n        /* \"contracts/crypto_kids.sol\":1003:1097  function balanceOf () public view returns (uint) {... */\n    tag_19:\n        /* \"contracts/crypto_kids.sol\":1046:1050  uint */\n      0x00\n        /* \"contracts/crypto_kids.sol\":1069:1090  address(this).balance */\n      selfbalance\n        /* \"contracts/crypto_kids.sol\":1062:1090  return address(this).balance */\n      swap1\n      pop\n        /* \"contracts/crypto_kids.sol\":1003:1097  function balanceOf () public view returns (uint) {... */\n      swap1\n      jump\t// out\n        /* \"contracts/crypto_kids.sol\":473:490  Kid[] public kids */\n    tag_26:\n      0x01\n      dup2\n      dup2\n      sload\n      dup2\n      lt\n      tag_73\n      jumpi\n      0x00\n      dup1\n      revert\n    tag_73:\n      swap1\n      0x00\n      mstore\n      keccak256(0x00, 0x20)\n      swap1\n      0x06\n      mul\n      add\n      0x00\n      swap2\n      pop\n      swap1\n      pop\n      dup1\n      0x00\n      add\n      0x00\n      swap1\n      sload\n      swap1\n      0x0100\n      exp\n      swap1\n      div\n      0xffffffffffffffffffffffffffffffffffffffff\n      and\n      swap1\n      dup1\n      0x01\n      add\n      dup1\n      sload\n      tag_75\n      swap1\n      tag_76\n      jump\t// in\n    tag_75:\n      dup1\n      0x1f\n      add\n      0x20\n      dup1\n      swap2\n      div\n      mul\n      0x20\n      add\n      mload(0x40)\n      swap1\n      dup2\n      add\n      0x40\n      mstore\n      dup1\n      swap3\n      swap2\n      swap1\n      dup2\n      dup2\n      mstore\n      0x20\n      add\n      dup3\n      dup1\n      sload\n      tag_77\n      swap1\n      tag_76\n      jump\t// in\n    tag_77:\n      dup1\n      iszero\n      tag_78\n      jumpi\n      dup1\n      0x1f\n      lt\n      tag_79\n      jumpi\n      0x0100\n      dup1\n      dup4\n      sload\n      div\n      mul\n      dup4\n      mstore\n      swap2\n      0x20\n      add\n      swap2\n      jump(tag_78)\n    tag_79:\n      dup3\n      add\n      swap2\n      swap1\n      0x00\n      mstore\n      keccak256(0x00, 0x20)\n      swap1\n    tag_80:\n      dup2\n      sload\n      dup2\n      mstore\n      swap1\n      0x01\n      add\n      swap1\n      0x20\n      add\n      dup1\n      dup4\n      gt\n      tag_80\n      jumpi\n      dup3\n      swap1\n      sub\n      0x1f\n      and\n      dup3\n      add\n      swap2\n    tag_78:\n      pop\n      pop\n      pop\n      pop\n      pop\n      swap1\n      dup1\n      0x02\n      add\n      dup1\n      sload\n      tag_81\n      swap1\n      tag_76\n      jump\t// in\n    tag_81:\n      dup1\n      0x1f\n      add\n      0x20\n      dup1\n      swap2\n      div\n      mul\n      0x20\n      add\n      mload(0x40)\n      swap1\n      dup2\n      add\n      0x40\n      mstore\n      dup1\n      swap3\n      swap2\n      swap1\n      dup2\n      dup2\n      mstore\n      0x20\n      add\n      dup3\n      dup1\n      sload\n      tag_82\n      swap1\n      tag_76\n      jump\t// in\n    tag_82:\n      dup1\n      iszero\n      tag_83\n      jumpi\n      dup1\n      0x1f\n      lt\n      tag_84\n      jumpi\n      0x0100\n      dup1\n      dup4\n      sload\n      div\n      mul\n      dup4\n      mstore\n      swap2\n      0x20\n      add\n      swap2\n      jump(tag_83)\n    tag_84:\n      dup3\n      add\n      swap2\n      swap1\n      0x00\n      mstore\n      keccak256(0x00, 0x20)\n      swap1\n    tag_85:\n      dup2\n      sload\n      dup2\n      mstore\n      swap1\n      0x01\n      add\n      swap1\n      0x20\n      add\n      dup1\n      dup4\n      gt\n      tag_85\n      jumpi\n      dup3\n      swap1\n      sub\n      0x1f\n      and\n      dup3\n      add\n      swap2\n    tag_83:\n      pop\n      pop\n      pop\n      pop\n      pop\n      swap1\n      dup1\n      0x03\n      add\n      sload\n      swap1\n      dup1\n      0x04\n      add\n      sload\n      swap1\n      dup1\n      0x05\n      add\n      0x00\n      swap1\n      sload\n      swap1\n      0x0100\n      exp\n      swap1\n      div\n      0xff\n      and\n      swap1\n      pop\n      dup7\n      jump\t// out\n        /* \"contracts/crypto_kids.sol\":1902:2310  function availableToWithdraw(address walletAddress) public  returns(bool){... */\n    tag_33:\n        /* \"contracts/crypto_kids.sol\":1970:1974  bool */\n      0x00\n        /* \"contracts/crypto_kids.sol\":1985:1991  uint i */\n      dup1\n        /* \"contracts/crypto_kids.sol\":1994:2019  getIndex((walletAddress)) */\n      tag_87\n        /* \"contracts/crypto_kids.sol\":2004:2017  walletAddress */\n      dup4\n        /* \"contracts/crypto_kids.sol\":1994:2002  getIndex */\n      tag_50\n        /* \"contracts/crypto_kids.sol\":1994:2019  getIndex((walletAddress)) */\n      jump\t// in\n    tag_87:\n        /* \"contracts/crypto_kids.sol\":1985:2019  uint i = getIndex((walletAddress)) */\n      swap1\n      pop\n        /* \"contracts/crypto_kids.sol\":2055:2059  kids */\n      0x01\n        /* \"contracts/crypto_kids.sol\":2060:2061  i */\n      dup2\n        /* \"contracts/crypto_kids.sol\":2055:2062  kids[i] */\n      dup2\n      sload\n      dup2\n      lt\n      tag_88\n      jumpi\n      tag_89\n      tag_53\n      jump\t// in\n    tag_89:\n    tag_88:\n      swap1\n      0x00\n      mstore\n      keccak256(0x00, 0x20)\n      swap1\n      0x06\n      mul\n      add\n        /* \"contracts/crypto_kids.sol\":2055:2074  kids[i].releaseTime */\n      0x03\n      add\n      sload\n        /* \"contracts/crypto_kids.sol\":2037:2052  block.timestamp */\n      timestamp\n        /* \"contracts/crypto_kids.sol\":2037:2074  block.timestamp > kids[i].releaseTime */\n      gt\n        /* \"contracts/crypto_kids.sol\":2029:2123  require(block.timestamp > kids[i].releaseTime,\"You aren't permitted to withdraw at this time\") */\n      tag_91\n      jumpi\n      mload(0x40)\n      0x08c379a000000000000000000000000000000000000000000000000000000000\n      dup2\n      mstore\n      0x04\n      add\n      tag_92\n      swap1\n      tag_63\n      jump\t// in\n    tag_92:\n      mload(0x40)\n      dup1\n      swap2\n      sub\n      swap1\n      revert\n    tag_91:\n        /* \"contracts/crypto_kids.sol\":2155:2159  kids */\n      0x01\n        /* \"contracts/crypto_kids.sol\":2160:2161  i */\n      dup2\n        /* \"contracts/crypto_kids.sol\":2155:2162  kids[i] */\n      dup2\n      sload\n      dup2\n      lt\n      tag_93\n      jumpi\n      tag_94\n      tag_53\n      jump\t// in\n    tag_94:\n    tag_93:\n      swap1\n      0x00\n      mstore\n      keccak256(0x00, 0x20)\n      swap1\n      0x06\n      mul\n      add\n        /* \"contracts/crypto_kids.sol\":2155:2174  kids[i].releaseTime */\n      0x03\n      add\n      sload\n        /* \"contracts/crypto_kids.sol\":2137:2152  block.timestamp */\n      timestamp\n        /* \"contracts/crypto_kids.sol\":2137:2174  block.timestamp > kids[i].releaseTime */\n      gt\n        /* \"contracts/crypto_kids.sol\":2133:2304  if (block.timestamp > kids[i].releaseTime){... */\n      iszero\n      tag_96\n      jumpi\n        /* \"contracts/crypto_kids.sol\":2211:2215  true */\n      0x01\n        /* \"contracts/crypto_kids.sol\":2189:2193  kids */\n      dup1\n        /* \"contracts/crypto_kids.sol\":2194:2195  i */\n      dup3\n        /* \"contracts/crypto_kids.sol\":2189:2196  kids[i] */\n      dup2\n      sload\n      dup2\n      lt\n      tag_97\n      jumpi\n      tag_98\n      tag_53\n      jump\t// in\n    tag_98:\n    tag_97:\n      swap1\n      0x00\n      mstore\n      keccak256(0x00, 0x20)\n      swap1\n      0x06\n      mul\n      add\n        /* \"contracts/crypto_kids.sol\":2189:2208  kids[i].canWithdraw */\n      0x05\n      add\n      0x00\n        /* \"contracts/crypto_kids.sol\":2189:2215  kids[i].canWithdraw = true */\n      0x0100\n      exp\n      dup2\n      sload\n      dup2\n      0xff\n      mul\n      not\n      and\n      swap1\n      dup4\n      iszero\n      iszero\n      mul\n      or\n      swap1\n      sstore\n      pop\n        /* \"contracts/crypto_kids.sol\":2236:2240  true */\n      0x01\n        /* \"contracts/crypto_kids.sol\":2229:2240  return true */\n      swap2\n      pop\n      pop\n      jump(tag_86)\n        /* \"contracts/crypto_kids.sol\":2133:2304  if (block.timestamp > kids[i].releaseTime){... */\n    tag_96:\n        /* \"contracts/crypto_kids.sol\":2288:2293  false */\n      0x00\n        /* \"contracts/crypto_kids.sol\":2280:2293  return  false */\n      swap2\n      pop\n      pop\n        /* \"contracts/crypto_kids.sol\":1902:2310  function availableToWithdraw(address walletAddress) public  returns(bool){... */\n    tag_86:\n      swap2\n      swap1\n      pop\n      jump\t// out\n        /* \"contracts/crypto_kids.sol\":1172:1278  function deposit (address walletAddress) payable  public {... */\n    tag_38:\n        /* \"contracts/crypto_kids.sol\":1239:1270  addToKidsBalance(walletAddress) */\n      tag_102\n        /* \"contracts/crypto_kids.sol\":1256:1269  walletAddress */\n      dup2\n        /* \"contracts/crypto_kids.sol\":1239:1255  addToKidsBalance */\n      tag_103\n        /* \"contracts/crypto_kids.sol\":1239:1270  addToKidsBalance(walletAddress) */\n      jump\t// in\n    tag_102:\n        /* \"contracts/crypto_kids.sol\":1172:1278  function deposit (address walletAddress) payable  public {... */\n      pop\n      jump\t// out\n        /* \"contracts/crypto_kids.sol\":1608:1856  function getIndex(address walletAddress) view private returns(uint){... */\n    tag_50:\n        /* \"contracts/crypto_kids.sol\":1670:1674  uint */\n      0x00\n        /* \"contracts/crypto_kids.sol\":1690:1696  uint i */\n      dup1\n        /* \"contracts/crypto_kids.sol\":1699:1700  0 */\n      0x00\n        /* \"contracts/crypto_kids.sol\":1690:1700  uint i = 0 */\n      swap1\n      pop\n        /* \"contracts/crypto_kids.sol\":1685:1830  for (uint i = 0; i < kids.length;i++){... */\n    tag_105:\n        /* \"contracts/crypto_kids.sol\":1706:1710  kids */\n      0x01\n        /* \"contracts/crypto_kids.sol\":1706:1717  kids.length */\n      dup1\n      sload\n      swap1\n      pop\n        /* \"contracts/crypto_kids.sol\":1702:1703  i */\n      dup2\n        /* \"contracts/crypto_kids.sol\":1702:1717  i < kids.length */\n      lt\n        /* \"contracts/crypto_kids.sol\":1685:1830  for (uint i = 0; i < kids.length;i++){... */\n      iszero\n      tag_106\n      jumpi\n        /* \"contracts/crypto_kids.sol\":1765:1778  walletAddress */\n      dup3\n        /* \"contracts/crypto_kids.sol\":1740:1778  kids[i].walletAddress == walletAddress */\n      0xffffffffffffffffffffffffffffffffffffffff\n      and\n        /* \"contracts/crypto_kids.sol\":1740:1744  kids */\n      0x01\n        /* \"contracts/crypto_kids.sol\":1745:1746  i */\n      dup3\n        /* \"contracts/crypto_kids.sol\":1740:1747  kids[i] */\n      dup2\n      sload\n      dup2\n      lt\n      tag_108\n      jumpi\n      tag_109\n      tag_53\n      jump\t// in\n    tag_109:\n    tag_108:\n      swap1\n      0x00\n      mstore\n      keccak256(0x00, 0x20)\n      swap1\n      0x06\n      mul\n      add\n        /* \"contracts/crypto_kids.sol\":1740:1761  kids[i].walletAddress */\n      0x00\n      add\n      0x00\n      swap1\n      sload\n      swap1\n      0x0100\n      exp\n      swap1\n      div\n      0xffffffffffffffffffffffffffffffffffffffff\n      and\n        /* \"contracts/crypto_kids.sol\":1740:1778  kids[i].walletAddress == walletAddress */\n      0xffffffffffffffffffffffffffffffffffffffff\n      and\n      sub\n        /* \"contracts/crypto_kids.sol\":1736:1820  if (kids[i].walletAddress == walletAddress){... */\n      tag_111\n      jumpi\n        /* \"contracts/crypto_kids.sol\":1804:1805  i */\n      dup1\n        /* \"contracts/crypto_kids.sol\":1797:1805  return i */\n      swap2\n      pop\n      pop\n      jump(tag_104)\n        /* \"contracts/crypto_kids.sol\":1736:1820  if (kids[i].walletAddress == walletAddress){... */\n    tag_111:\n        /* \"contracts/crypto_kids.sol\":1718:1721  i++ */\n      dup1\n      dup1\n      0x01\n      add\n      swap2\n      pop\n      pop\n        /* \"contracts/crypto_kids.sol\":1685:1830  for (uint i = 0; i < kids.length;i++){... */\n      jump(tag_105)\n    tag_106:\n      pop\n        /* \"contracts/crypto_kids.sol\":1846:1849  404 */\n      0x0194\n        /* \"contracts/crypto_kids.sol\":1839:1849  return 404 */\n      swap1\n      pop\n        /* \"contracts/crypto_kids.sol\":1608:1856  function getIndex(address walletAddress) view private returns(uint){... */\n    tag_104:\n      swap2\n      swap1\n      pop\n      jump\t// out\n        /* \"contracts/crypto_kids.sol\":1284:1602  function addToKidsBalance(address walletAddress) private {... */\n    tag_103:\n        /* \"contracts/crypto_kids.sol\":1356:1362  uint i */\n      0x00\n        /* \"contracts/crypto_kids.sol\":1351:1596  for (uint i = 0;i < kids.length; i++){... */\n    tag_113:\n        /* \"contracts/crypto_kids.sol\":1371:1375  kids */\n      0x01\n        /* \"contracts/crypto_kids.sol\":1371:1382  kids.length */\n      dup1\n      sload\n      swap1\n      pop\n        /* \"contracts/crypto_kids.sol\":1367:1368  i */\n      dup2\n        /* \"contracts/crypto_kids.sol\":1367:1382  i < kids.length */\n      lt\n        /* \"contracts/crypto_kids.sol\":1351:1596  for (uint i = 0;i < kids.length; i++){... */\n      iszero\n      tag_114\n      jumpi\n        /* \"contracts/crypto_kids.sol\":1431:1444  walletAddress */\n      dup2\n        /* \"contracts/crypto_kids.sol\":1406:1444  kids[i].walletAddress == walletAddress */\n      0xffffffffffffffffffffffffffffffffffffffff\n      and\n        /* \"contracts/crypto_kids.sol\":1406:1410  kids */\n      0x01\n        /* \"contracts/crypto_kids.sol\":1411:1412  i */\n      dup3\n        /* \"contracts/crypto_kids.sol\":1406:1413  kids[i] */\n      dup2\n      sload\n      dup2\n      lt\n      tag_116\n      jumpi\n      tag_117\n      tag_53\n      jump\t// in\n    tag_117:\n    tag_116:\n      swap1\n      0x00\n      mstore\n      keccak256(0x00, 0x20)\n      swap1\n      0x06\n      mul\n      add\n        /* \"contracts/crypto_kids.sol\":1406:1427  kids[i].walletAddress */\n      0x00\n      add\n      0x00\n      swap1\n      sload\n      swap1\n      0x0100\n      exp\n      swap1\n      div\n      0xffffffffffffffffffffffffffffffffffffffff\n      and\n        /* \"contracts/crypto_kids.sol\":1406:1444  kids[i].walletAddress == walletAddress */\n      0xffffffffffffffffffffffffffffffffffffffff\n      and\n      sub\n        /* \"contracts/crypto_kids.sol\":1402:1586  if (kids[i].walletAddress == walletAddress){... */\n      tag_119\n      jumpi\n        /* \"contracts/crypto_kids.sol\":1481:1490  msg.value */\n      callvalue\n        /* \"contracts/crypto_kids.sol\":1463:1467  kids */\n      0x01\n        /* \"contracts/crypto_kids.sol\":1468:1469  i */\n      dup3\n        /* \"contracts/crypto_kids.sol\":1463:1470  kids[i] */\n      dup2\n      sload\n      dup2\n      lt\n      tag_120\n      jumpi\n      tag_121\n      tag_53\n      jump\t// in\n    tag_121:\n    tag_120:\n      swap1\n      0x00\n      mstore\n      keccak256(0x00, 0x20)\n      swap1\n      0x06\n      mul\n      add\n        /* \"contracts/crypto_kids.sol\":1463:1477  kids[i].amount */\n      0x04\n      add\n      0x00\n        /* \"contracts/crypto_kids.sol\":1463:1490  kids[i].amount += msg.value */\n      dup3\n      dup3\n      sload\n      tag_123\n      swap2\n      swap1\n      tag_124\n      jump\t// in\n    tag_123:\n      swap3\n      pop\n      pop\n      dup2\n      swap1\n      sstore\n      pop\n        /* \"contracts/crypto_kids.sol\":1513:1571  logKidFundingReceived(walletAddress,msg.value,balanceOf()) */\n      0x8e5b73e270ccfdfea317ebd9d7945af60a4350ce9106cfe4284215c5cba7daa6\n        /* \"contracts/crypto_kids.sol\":1535:1548  walletAddress */\n      dup3\n        /* \"contracts/crypto_kids.sol\":1549:1558  msg.value */\n      callvalue\n        /* \"contracts/crypto_kids.sol\":1559:1570  balanceOf() */\n      tag_125\n        /* \"contracts/crypto_kids.sol\":1559:1568  balanceOf */\n      tag_19\n        /* \"contracts/crypto_kids.sol\":1559:1570  balanceOf() */\n      jump\t// in\n    tag_125:\n        /* \"contracts/crypto_kids.sol\":1513:1571  logKidFundingReceived(walletAddress,msg.value,balanceOf()) */\n      mload(0x40)\n      tag_126\n      swap4\n      swap3\n      swap2\n      swap1\n      tag_127\n      jump\t// in\n    tag_126:\n      mload(0x40)\n      dup1\n      swap2\n      sub\n      swap1\n      log1\n        /* \"contracts/crypto_kids.sol\":1402:1586  if (kids[i].walletAddress == walletAddress){... */\n    tag_119:\n        /* \"contracts/crypto_kids.sol\":1384:1387  i++ */\n      dup1\n      dup1\n      0x01\n      add\n      swap2\n      pop\n      pop\n        /* \"contracts/crypto_kids.sol\":1351:1596  for (uint i = 0;i < kids.length; i++){... */\n      jump(tag_113)\n    tag_114:\n      pop\n        /* \"contracts/crypto_kids.sol\":1284:1602  function addToKidsBalance(address walletAddress) private {... */\n      pop\n      jump\t// out\n        /* \"#utility.yul\":7:82   */\n    tag_128:\n        /* \"#utility.yul\":40:46   */\n      0x00\n        /* \"#utility.yul\":73:75   */\n      0x40\n        /* \"#utility.yul\":67:76   */\n      mload\n        /* \"#utility.yul\":57:76   */\n      swap1\n      pop\n        /* \"#utility.yul\":7:82   */\n      swap1\n      jump\t// out\n        /* \"#utility.yul\":88:205   */\n    tag_129:\n        /* \"#utility.yul\":197:198   */\n      0x00\n        /* \"#utility.yul\":194:195   */\n      dup1\n        /* \"#utility.yul\":187:199   */\n      revert\n        /* \"#utility.yul\":211:328   */\n    tag_130:\n        /* \"#utility.yul\":320:321   */\n      0x00\n        /* \"#utility.yul\":317:318   */\n      dup1\n        /* \"#utility.yul\":310:322   */\n      revert\n        /* \"#utility.yul\":334:460   */\n    tag_131:\n        /* \"#utility.yul\":371:378   */\n      0x00\n        /* \"#utility.yul\":411:453   */\n      0xffffffffffffffffffffffffffffffffffffffff\n        /* \"#utility.yul\":404:409   */\n      dup3\n        /* \"#utility.yul\":400:454   */\n      and\n        /* \"#utility.yul\":389:454   */\n      swap1\n      pop\n        /* \"#utility.yul\":334:460   */\n      swap2\n      swap1\n      pop\n      jump\t// out\n        /* \"#utility.yul\":466:570   */\n    tag_132:\n        /* \"#utility.yul\":511:518   */\n      0x00\n        /* \"#utility.yul\":540:564   */\n      tag_191\n        /* \"#utility.yul\":558:563   */\n      dup3\n        /* \"#utility.yul\":540:564   */\n      tag_131\n      jump\t// in\n    tag_191:\n        /* \"#utility.yul\":529:564   */\n      swap1\n      pop\n        /* \"#utility.yul\":466:570   */\n      swap2\n      swap1\n      pop\n      jump\t// out\n        /* \"#utility.yul\":576:714   */\n    tag_133:\n        /* \"#utility.yul\":657:689   */\n      tag_193\n        /* \"#utility.yul\":683:688   */\n      dup2\n        /* \"#utility.yul\":657:689   */\n      tag_132\n      jump\t// in\n    tag_193:\n        /* \"#utility.yul\":650:655   */\n      dup2\n        /* \"#utility.yul\":647:690   */\n      eq\n        /* \"#utility.yul\":637:708   */\n      tag_194\n      jumpi\n        /* \"#utility.yul\":704:705   */\n      0x00\n        /* \"#utility.yul\":701:702   */\n      dup1\n        /* \"#utility.yul\":694:706   */\n      revert\n        /* \"#utility.yul\":637:708   */\n    tag_194:\n        /* \"#utility.yul\":576:714   */\n      pop\n      jump\t// out\n        /* \"#utility.yul\":720:875   */\n    tag_134:\n        /* \"#utility.yul\":774:779   */\n      0x00\n        /* \"#utility.yul\":812:818   */\n      dup2\n        /* \"#utility.yul\":799:819   */\n      calldataload\n        /* \"#utility.yul\":790:819   */\n      swap1\n      pop\n        /* \"#utility.yul\":828:869   */\n      tag_196\n        /* \"#utility.yul\":863:868   */\n      dup2\n        /* \"#utility.yul\":828:869   */\n      tag_133\n      jump\t// in\n    tag_196:\n        /* \"#utility.yul\":720:875   */\n      swap3\n      swap2\n      pop\n      pop\n      jump\t// out\n        /* \"#utility.yul\":881:998   */\n    tag_135:\n        /* \"#utility.yul\":990:991   */\n      0x00\n        /* \"#utility.yul\":987:988   */\n      dup1\n        /* \"#utility.yul\":980:992   */\n      revert\n        /* \"#utility.yul\":1004:1121   */\n    tag_136:\n        /* \"#utility.yul\":1113:1114   */\n      0x00\n        /* \"#utility.yul\":1110:1111   */\n      dup1\n        /* \"#utility.yul\":1103:1115   */\n      revert\n        /* \"#utility.yul\":1127:1229   */\n    tag_137:\n        /* \"#utility.yul\":1168:1174   */\n      0x00\n        /* \"#utility.yul\":1219:1221   */\n      0x1f\n        /* \"#utility.yul\":1215:1222   */\n      not\n        /* \"#utility.yul\":1210:1212   */\n      0x1f\n        /* \"#utility.yul\":1203:1208   */\n      dup4\n        /* \"#utility.yul\":1199:1213   */\n      add\n        /* \"#utility.yul\":1195:1223   */\n      and\n        /* \"#utility.yul\":1185:1223   */\n      swap1\n      pop\n        /* \"#utility.yul\":1127:1229   */\n      swap2\n      swap1\n      pop\n      jump\t// out\n        /* \"#utility.yul\":1235:1415   */\n    tag_138:\n        /* \"#utility.yul\":1283:1360   */\n      0x4e487b7100000000000000000000000000000000000000000000000000000000\n        /* \"#utility.yul\":1280:1281   */\n      0x00\n        /* \"#utility.yul\":1273:1361   */\n      mstore\n        /* \"#utility.yul\":1380:1384   */\n      0x41\n        /* \"#utility.yul\":1377:1378   */\n      0x04\n        /* \"#utility.yul\":1370:1385   */\n      mstore\n        /* \"#utility.yul\":1404:1408   */\n      0x24\n        /* \"#utility.yul\":1401:1402   */\n      0x00\n        /* \"#utility.yul\":1394:1409   */\n      revert\n        /* \"#utility.yul\":1421:1702   */\n    tag_139:\n        /* \"#utility.yul\":1504:1531   */\n      tag_202\n        /* \"#utility.yul\":1526:1530   */\n      dup3\n        /* \"#utility.yul\":1504:1531   */\n      tag_137\n      jump\t// in\n    tag_202:\n        /* \"#utility.yul\":1496:1502   */\n      dup2\n        /* \"#utility.yul\":1492:1532   */\n      add\n        /* \"#utility.yul\":1634:1640   */\n      dup2\n        /* \"#utility.yul\":1622:1632   */\n      dup2\n        /* \"#utility.yul\":1619:1641   */\n      lt\n        /* \"#utility.yul\":1598:1616   */\n      0xffffffffffffffff\n        /* \"#utility.yul\":1586:1596   */\n      dup3\n        /* \"#utility.yul\":1583:1617   */\n      gt\n        /* \"#utility.yul\":1580:1642   */\n      or\n        /* \"#utility.yul\":1577:1665   */\n      iszero\n      tag_203\n      jumpi\n        /* \"#utility.yul\":1645:1663   */\n      tag_204\n      tag_138\n      jump\t// in\n    tag_204:\n        /* \"#utility.yul\":1577:1665   */\n    tag_203:\n        /* \"#utility.yul\":1685:1695   */\n      dup1\n        /* \"#utility.yul\":1681:1683   */\n      0x40\n        /* \"#utility.yul\":1674:1696   */\n      mstore\n        /* \"#utility.yul\":1464:1702   */\n      pop\n        /* \"#utility.yul\":1421:1702   */\n      pop\n      pop\n      jump\t// out\n        /* \"#utility.yul\":1708:1837   */\n    tag_140:\n        /* \"#utility.yul\":1742:1748   */\n      0x00\n        /* \"#utility.yul\":1769:1789   */\n      tag_206\n      tag_128\n      jump\t// in\n    tag_206:\n        /* \"#utility.yul\":1759:1789   */\n      swap1\n      pop\n        /* \"#utility.yul\":1798:1831   */\n      tag_207\n        /* \"#utility.yul\":1826:1830   */\n      dup3\n        /* \"#utility.yul\":1818:1824   */\n      dup3\n        /* \"#utility.yul\":1798:1831   */\n      tag_139\n      jump\t// in\n    tag_207:\n        /* \"#utility.yul\":1708:1837   */\n      swap2\n      swap1\n      pop\n      jump\t// out\n        /* \"#utility.yul\":1843:2151   */\n    tag_141:\n        /* \"#utility.yul\":1905:1909   */\n      0x00\n        /* \"#utility.yul\":1995:2013   */\n      0xffffffffffffffff\n        /* \"#utility.yul\":1987:1993   */\n      dup3\n        /* \"#utility.yul\":1984:2014   */\n      gt\n        /* \"#utility.yul\":1981:2037   */\n      iszero\n      tag_209\n      jumpi\n        /* \"#utility.yul\":2017:2035   */\n      tag_210\n      tag_138\n      jump\t// in\n    tag_210:\n        /* \"#utility.yul\":1981:2037   */\n    tag_209:\n        /* \"#utility.yul\":2055:2084   */\n      tag_211\n        /* \"#utility.yul\":2077:2083   */\n      dup3\n        /* \"#utility.yul\":2055:2084   */\n      tag_137\n      jump\t// in\n    tag_211:\n        /* \"#utility.yul\":2047:2084   */\n      swap1\n      pop\n        /* \"#utility.yul\":2139:2143   */\n      0x20\n        /* \"#utility.yul\":2133:2137   */\n      dup2\n        /* \"#utility.yul\":2129:2144   */\n      add\n        /* \"#utility.yul\":2121:2144   */\n      swap1\n      pop\n        /* \"#utility.yul\":1843:2151   */\n      swap2\n      swap1\n      pop\n      jump\t// out\n        /* \"#utility.yul\":2157:2305   */\n    tag_142:\n        /* \"#utility.yul\":2255:2261   */\n      dup3\n        /* \"#utility.yul\":2250:2253   */\n      dup2\n        /* \"#utility.yul\":2245:2248   */\n      dup4\n        /* \"#utility.yul\":2232:2262   */\n      calldatacopy\n        /* \"#utility.yul\":2296:2297   */\n      0x00\n        /* \"#utility.yul\":2287:2293   */\n      dup4\n        /* \"#utility.yul\":2282:2285   */\n      dup4\n        /* \"#utility.yul\":2278:2294   */\n      add\n        /* \"#utility.yul\":2271:2298   */\n      mstore\n        /* \"#utility.yul\":2157:2305   */\n      pop\n      pop\n      pop\n      jump\t// out\n        /* \"#utility.yul\":2311:2736   */\n    tag_143:\n        /* \"#utility.yul\":2389:2394   */\n      0x00\n        /* \"#utility.yul\":2414:2480   */\n      tag_214\n        /* \"#utility.yul\":2430:2479   */\n      tag_215\n        /* \"#utility.yul\":2472:2478   */\n      dup5\n        /* \"#utility.yul\":2430:2479   */\n      tag_141\n      jump\t// in\n    tag_215:\n        /* \"#utility.yul\":2414:2480   */\n      tag_140\n      jump\t// in\n    tag_214:\n        /* \"#utility.yul\":2405:2480   */\n      swap1\n      pop\n        /* \"#utility.yul\":2503:2509   */\n      dup3\n        /* \"#utility.yul\":2496:2501   */\n      dup2\n        /* \"#utility.yul\":2489:2510   */\n      mstore\n        /* \"#utility.yul\":2541:2545   */\n      0x20\n        /* \"#utility.yul\":2534:2539   */\n      dup2\n        /* \"#utility.yul\":2530:2546   */\n      add\n        /* \"#utility.yul\":2579:2582   */\n      dup5\n        /* \"#utility.yul\":2570:2576   */\n      dup5\n        /* \"#utility.yul\":2565:2568   */\n      dup5\n        /* \"#utility.yul\":2561:2577   */\n      add\n        /* \"#utility.yul\":2558:2583   */\n      gt\n        /* \"#utility.yul\":2555:2667   */\n      iszero\n      tag_216\n      jumpi\n        /* \"#utility.yul\":2586:2665   */\n      tag_217\n      tag_136\n      jump\t// in\n    tag_217:\n        /* \"#utility.yul\":2555:2667   */\n    tag_216:\n        /* \"#utility.yul\":2676:2730   */\n      tag_218\n        /* \"#utility.yul\":2723:2729   */\n      dup5\n        /* \"#utility.yul\":2718:2721   */\n      dup3\n        /* \"#utility.yul\":2713:2716   */\n      dup6\n        /* \"#utility.yul\":2676:2730   */\n      tag_142\n      jump\t// in\n    tag_218:\n        /* \"#utility.yul\":2395:2736   */\n      pop\n        /* \"#utility.yul\":2311:2736   */\n      swap4\n      swap3\n      pop\n      pop\n      pop\n      jump\t// out\n        /* \"#utility.yul\":2756:3096   */\n    tag_144:\n        /* \"#utility.yul\":2812:2817   */\n      0x00\n        /* \"#utility.yul\":2861:2864   */\n      dup3\n        /* \"#utility.yul\":2854:2858   */\n      0x1f\n        /* \"#utility.yul\":2846:2852   */\n      dup4\n        /* \"#utility.yul\":2842:2859   */\n      add\n        /* \"#utility.yul\":2838:2865   */\n      slt\n        /* \"#utility.yul\":2828:2950   */\n      tag_220\n      jumpi\n        /* \"#utility.yul\":2869:2948   */\n      tag_221\n      tag_135\n      jump\t// in\n    tag_221:\n        /* \"#utility.yul\":2828:2950   */\n    tag_220:\n        /* \"#utility.yul\":2986:2992   */\n      dup2\n        /* \"#utility.yul\":2973:2993   */\n      calldataload\n        /* \"#utility.yul\":3011:3090   */\n      tag_222\n        /* \"#utility.yul\":3086:3089   */\n      dup5\n        /* \"#utility.yul\":3078:3084   */\n      dup3\n        /* \"#utility.yul\":3071:3075   */\n      0x20\n        /* \"#utility.yul\":3063:3069   */\n      dup7\n        /* \"#utility.yul\":3059:3076   */\n      add\n        /* \"#utility.yul\":3011:3090   */\n      tag_143\n      jump\t// in\n    tag_222:\n        /* \"#utility.yul\":3002:3090   */\n      swap2\n      pop\n        /* \"#utility.yul\":2818:3096   */\n      pop\n        /* \"#utility.yul\":2756:3096   */\n      swap3\n      swap2\n      pop\n      pop\n      jump\t// out\n        /* \"#utility.yul\":3102:3179   */\n    tag_145:\n        /* \"#utility.yul\":3139:3146   */\n      0x00\n        /* \"#utility.yul\":3168:3173   */\n      dup2\n        /* \"#utility.yul\":3157:3173   */\n      swap1\n      pop\n        /* \"#utility.yul\":3102:3179   */\n      swap2\n      swap1\n      pop\n      jump\t// out\n        /* \"#utility.yul\":3185:3307   */\n    tag_146:\n        /* \"#utility.yul\":3258:3282   */\n      tag_225\n        /* \"#utility.yul\":3276:3281   */\n      dup2\n        /* \"#utility.yul\":3258:3282   */\n      tag_145\n      jump\t// in\n    tag_225:\n        /* \"#utility.yul\":3251:3256   */\n      dup2\n        /* \"#utility.yul\":3248:3283   */\n      eq\n        /* \"#utility.yul\":3238:3301   */\n      tag_226\n      jumpi\n        /* \"#utility.yul\":3297:3298   */\n      0x00\n        /* \"#utility.yul\":3294:3295   */\n      dup1\n        /* \"#utility.yul\":3287:3299   */\n      revert\n        /* \"#utility.yul\":3238:3301   */\n    tag_226:\n        /* \"#utility.yul\":3185:3307   */\n      pop\n      jump\t// out\n        /* \"#utility.yul\":3313:3452   */\n    tag_147:\n        /* \"#utility.yul\":3359:3364   */\n      0x00\n        /* \"#utility.yul\":3397:3403   */\n      dup2\n        /* \"#utility.yul\":3384:3404   */\n      calldataload\n        /* \"#utility.yul\":3375:3404   */\n      swap1\n      pop\n        /* \"#utility.yul\":3413:3446   */\n      tag_228\n        /* \"#utility.yul\":3440:3445   */\n      dup2\n        /* \"#utility.yul\":3413:3446   */\n      tag_146\n      jump\t// in\n    tag_228:\n        /* \"#utility.yul\":3313:3452   */\n      swap3\n      swap2\n      pop\n      pop\n      jump\t// out\n        /* \"#utility.yul\":3458:3548   */\n    tag_148:\n        /* \"#utility.yul\":3492:3499   */\n      0x00\n        /* \"#utility.yul\":3535:3540   */\n      dup2\n        /* \"#utility.yul\":3528:3541   */\n      iszero\n        /* \"#utility.yul\":3521:3542   */\n      iszero\n        /* \"#utility.yul\":3510:3542   */\n      swap1\n      pop\n        /* \"#utility.yul\":3458:3548   */\n      swap2\n      swap1\n      pop\n      jump\t// out\n        /* \"#utility.yul\":3554:3670   */\n    tag_149:\n        /* \"#utility.yul\":3624:3645   */\n      tag_231\n        /* \"#utility.yul\":3639:3644   */\n      dup2\n        /* \"#utility.yul\":3624:3645   */\n      tag_148\n      jump\t// in\n    tag_231:\n        /* \"#utility.yul\":3617:3622   */\n      dup2\n        /* \"#utility.yul\":3614:3646   */\n      eq\n        /* \"#utility.yul\":3604:3664   */\n      tag_232\n      jumpi\n        /* \"#utility.yul\":3660:3661   */\n      0x00\n        /* \"#utility.yul\":3657:3658   */\n      dup1\n        /* \"#utility.yul\":3650:3662   */\n      revert\n        /* \"#utility.yul\":3604:3664   */\n    tag_232:\n        /* \"#utility.yul\":3554:3670   */\n      pop\n      jump\t// out\n        /* \"#utility.yul\":3676:3809   */\n    tag_150:\n        /* \"#utility.yul\":3719:3724   */\n      0x00\n        /* \"#utility.yul\":3757:3763   */\n      dup2\n        /* \"#utility.yul\":3744:3764   */\n      calldataload\n        /* \"#utility.yul\":3735:3764   */\n      swap1\n      pop\n        /* \"#utility.yul\":3773:3803   */\n      tag_234\n        /* \"#utility.yul\":3797:3802   */\n      dup2\n        /* \"#utility.yul\":3773:3803   */\n      tag_149\n      jump\t// in\n    tag_234:\n        /* \"#utility.yul\":3676:3809   */\n      swap3\n      swap2\n      pop\n      pop\n      jump\t// out\n        /* \"#utility.yul\":3815:5242   */\n    tag_11:\n        /* \"#utility.yul\":3944:3950   */\n      0x00\n        /* \"#utility.yul\":3952:3958   */\n      dup1\n        /* \"#utility.yul\":3960:3966   */\n      0x00\n        /* \"#utility.yul\":3968:3974   */\n      dup1\n        /* \"#utility.yul\":3976:3982   */\n      0x00\n        /* \"#utility.yul\":3984:3990   */\n      dup1\n        /* \"#utility.yul\":4033:4036   */\n      0xc0\n        /* \"#utility.yul\":4021:4030   */\n      dup8\n        /* \"#utility.yul\":4012:4019   */\n      dup10\n        /* \"#utility.yul\":4008:4031   */\n      sub\n        /* \"#utility.yul\":4004:4037   */\n      slt\n        /* \"#utility.yul\":4001:4121   */\n      iszero\n      tag_236\n      jumpi\n        /* \"#utility.yul\":4040:4119   */\n      tag_237\n      tag_129\n      jump\t// in\n    tag_237:\n        /* \"#utility.yul\":4001:4121   */\n    tag_236:\n        /* \"#utility.yul\":4160:4161   */\n      0x00\n        /* \"#utility.yul\":4185:4246   */\n      tag_238\n        /* \"#utility.yul\":4238:4245   */\n      dup10\n        /* \"#utility.yul\":4229:4235   */\n      dup3\n        /* \"#utility.yul\":4218:4227   */\n      dup11\n        /* \"#utility.yul\":4214:4236   */\n      add\n        /* \"#utility.yul\":4185:4246   */\n      tag_134\n      jump\t// in\n    tag_238:\n        /* \"#utility.yul\":4175:4246   */\n      swap7\n      pop\n        /* \"#utility.yul\":4131:4256   */\n      pop\n        /* \"#utility.yul\":4323:4325   */\n      0x20\n        /* \"#utility.yul\":4312:4321   */\n      dup8\n        /* \"#utility.yul\":4308:4326   */\n      add\n        /* \"#utility.yul\":4295:4327   */\n      calldataload\n        /* \"#utility.yul\":4354:4372   */\n      0xffffffffffffffff\n        /* \"#utility.yul\":4346:4352   */\n      dup2\n        /* \"#utility.yul\":4343:4373   */\n      gt\n        /* \"#utility.yul\":4340:4457   */\n      iszero\n      tag_239\n      jumpi\n        /* \"#utility.yul\":4376:4455   */\n      tag_240\n      tag_130\n      jump\t// in\n    tag_240:\n        /* \"#utility.yul\":4340:4457   */\n    tag_239:\n        /* \"#utility.yul\":4481:4544   */\n      tag_241\n        /* \"#utility.yul\":4536:4543   */\n      dup10\n        /* \"#utility.yul\":4527:4533   */\n      dup3\n        /* \"#utility.yul\":4516:4525   */\n      dup11\n        /* \"#utility.yul\":4512:4534   */\n      add\n        /* \"#utility.yul\":4481:4544   */\n      tag_144\n      jump\t// in\n    tag_241:\n        /* \"#utility.yul\":4471:4544   */\n      swap6\n      pop\n        /* \"#utility.yul\":4266:4554   */\n      pop\n        /* \"#utility.yul\":4621:4623   */\n      0x40\n        /* \"#utility.yul\":4610:4619   */\n      dup8\n        /* \"#utility.yul\":4606:4624   */\n      add\n        /* \"#utility.yul\":4593:4625   */\n      calldataload\n        /* \"#utility.yul\":4652:4670   */\n      0xffffffffffffffff\n        /* \"#utility.yul\":4644:4650   */\n      dup2\n        /* \"#utility.yul\":4641:4671   */\n      gt\n        /* \"#utility.yul\":4638:4755   */\n      iszero\n      tag_242\n      jumpi\n        /* \"#utility.yul\":4674:4753   */\n      tag_243\n      tag_130\n      jump\t// in\n    tag_243:\n        /* \"#utility.yul\":4638:4755   */\n    tag_242:\n        /* \"#utility.yul\":4779:4842   */\n      tag_244\n        /* \"#utility.yul\":4834:4841   */\n      dup10\n        /* \"#utility.yul\":4825:4831   */\n      dup3\n        /* \"#utility.yul\":4814:4823   */\n      dup11\n        /* \"#utility.yul\":4810:4832   */\n      add\n        /* \"#utility.yul\":4779:4842   */\n      tag_144\n      jump\t// in\n    tag_244:\n        /* \"#utility.yul\":4769:4842   */\n      swap5\n      pop\n        /* \"#utility.yul\":4564:4852   */\n      pop\n        /* \"#utility.yul\":4891:4893   */\n      0x60\n        /* \"#utility.yul\":4917:4970   */\n      tag_245\n        /* \"#utility.yul\":4962:4969   */\n      dup10\n        /* \"#utility.yul\":4953:4959   */\n      dup3\n        /* \"#utility.yul\":4942:4951   */\n      dup11\n        /* \"#utility.yul\":4938:4960   */\n      add\n        /* \"#utility.yul\":4917:4970   */\n      tag_147\n      jump\t// in\n    tag_245:\n        /* \"#utility.yul\":4907:4970   */\n      swap4\n      pop\n        /* \"#utility.yul\":4862:4980   */\n      pop\n        /* \"#utility.yul\":5019:5022   */\n      0x80\n        /* \"#utility.yul\":5046:5099   */\n      tag_246\n        /* \"#utility.yul\":5091:5098   */\n      dup10\n        /* \"#utility.yul\":5082:5088   */\n      dup3\n        /* \"#utility.yul\":5071:5080   */\n      dup11\n        /* \"#utility.yul\":5067:5089   */\n      add\n        /* \"#utility.yul\":5046:5099   */\n      tag_147\n      jump\t// in\n    tag_246:\n        /* \"#utility.yul\":5036:5099   */\n      swap3\n      pop\n        /* \"#utility.yul\":4990:5109   */\n      pop\n        /* \"#utility.yul\":5148:5151   */\n      0xa0\n        /* \"#utility.yul\":5175:5225   */\n      tag_247\n        /* \"#utility.yul\":5217:5224   */\n      dup10\n        /* \"#utility.yul\":5208:5214   */\n      dup3\n        /* \"#utility.yul\":5197:5206   */\n      dup11\n        /* \"#utility.yul\":5193:5215   */\n      add\n        /* \"#utility.yul\":5175:5225   */\n      tag_150\n      jump\t// in\n    tag_247:\n        /* \"#utility.yul\":5165:5225   */\n      swap2\n      pop\n        /* \"#utility.yul\":5119:5235   */\n      pop\n        /* \"#utility.yul\":3815:5242   */\n      swap3\n      swap6\n      pop\n      swap3\n      swap6\n      pop\n      swap3\n      swap6\n      jump\t// out\n        /* \"#utility.yul\":5248:5593   */\n    tag_15:\n        /* \"#utility.yul\":5315:5321   */\n      0x00\n        /* \"#utility.yul\":5364:5366   */\n      0x20\n        /* \"#utility.yul\":5352:5361   */\n      dup3\n        /* \"#utility.yul\":5343:5350   */\n      dup5\n        /* \"#utility.yul\":5339:5362   */\n      sub\n        /* \"#utility.yul\":5335:5367   */\n      slt\n        /* \"#utility.yul\":5332:5451   */\n      iszero\n      tag_249\n      jumpi\n        /* \"#utility.yul\":5370:5449   */\n      tag_250\n      tag_129\n      jump\t// in\n    tag_250:\n        /* \"#utility.yul\":5332:5451   */\n    tag_249:\n        /* \"#utility.yul\":5490:5491   */\n      0x00\n        /* \"#utility.yul\":5515:5576   */\n      tag_251\n        /* \"#utility.yul\":5568:5575   */\n      dup5\n        /* \"#utility.yul\":5559:5565   */\n      dup3\n        /* \"#utility.yul\":5548:5557   */\n      dup6\n        /* \"#utility.yul\":5544:5566   */\n      add\n        /* \"#utility.yul\":5515:5576   */\n      tag_134\n      jump\t// in\n    tag_251:\n        /* \"#utility.yul\":5505:5576   */\n      swap2\n      pop\n        /* \"#utility.yul\":5461:5586   */\n      pop\n        /* \"#utility.yul\":5248:5593   */\n      swap3\n      swap2\n      pop\n      pop\n      jump\t// out\n        /* \"#utility.yul\":5599:5717   */\n    tag_151:\n        /* \"#utility.yul\":5686:5710   */\n      tag_253\n        /* \"#utility.yul\":5704:5709   */\n      dup2\n        /* \"#utility.yul\":5686:5710   */\n      tag_145\n      jump\t// in\n    tag_253:\n        /* \"#utility.yul\":5681:5684   */\n      dup3\n        /* \"#utility.yul\":5674:5711   */\n      mstore\n        /* \"#utility.yul\":5599:5717   */\n      pop\n      pop\n      jump\t// out\n        /* \"#utility.yul\":5723:5945   */\n    tag_21:\n        /* \"#utility.yul\":5816:5820   */\n      0x00\n        /* \"#utility.yul\":5854:5856   */\n      0x20\n        /* \"#utility.yul\":5843:5852   */\n      dup3\n        /* \"#utility.yul\":5839:5857   */\n      add\n        /* \"#utility.yul\":5831:5857   */\n      swap1\n      pop\n        /* \"#utility.yul\":5867:5938   */\n      tag_255\n        /* \"#utility.yul\":5935:5936   */\n      0x00\n        /* \"#utility.yul\":5924:5933   */\n      dup4\n        /* \"#utility.yul\":5920:5937   */\n      add\n        /* \"#utility.yul\":5911:5917   */\n      dup5\n        /* \"#utility.yul\":5867:5938   */\n      tag_151\n      jump\t// in\n    tag_255:\n        /* \"#utility.yul\":5723:5945   */\n      swap3\n      swap2\n      pop\n      pop\n      jump\t// out\n        /* \"#utility.yul\":5951:6280   */\n    tag_25:\n        /* \"#utility.yul\":6010:6016   */\n      0x00\n        /* \"#utility.yul\":6059:6061   */\n      0x20\n        /* \"#utility.yul\":6047:6056   */\n      dup3\n        /* \"#utility.yul\":6038:6045   */\n      dup5\n        /* \"#utility.yul\":6034:6057   */\n      sub\n        /* \"#utility.yul\":6030:6062   */\n      slt\n        /* \"#utility.yul\":6027:6146   */\n      iszero\n      tag_257\n      jumpi\n        /* \"#utility.yul\":6065:6144   */\n      tag_258\n      tag_129\n      jump\t// in\n    tag_258:\n        /* \"#utility.yul\":6027:6146   */\n    tag_257:\n        /* \"#utility.yul\":6185:6186   */\n      0x00\n        /* \"#utility.yul\":6210:6263   */\n      tag_259\n        /* \"#utility.yul\":6255:6262   */\n      dup5\n        /* \"#utility.yul\":6246:6252   */\n      dup3\n        /* \"#utility.yul\":6235:6244   */\n      dup6\n        /* \"#utility.yul\":6231:6253   */\n      add\n        /* \"#utility.yul\":6210:6263   */\n      tag_147\n      jump\t// in\n    tag_259:\n        /* \"#utility.yul\":6200:6263   */\n      swap2\n      pop\n        /* \"#utility.yul\":6156:6273   */\n      pop\n        /* \"#utility.yul\":5951:6280   */\n      swap3\n      swap2\n      pop\n      pop\n      jump\t// out\n        /* \"#utility.yul\":6286:6428   */\n    tag_152:\n        /* \"#utility.yul\":6389:6421   */\n      tag_261\n        /* \"#utility.yul\":6415:6420   */\n      dup2\n        /* \"#utility.yul\":6389:6421   */\n      tag_132\n      jump\t// in\n    tag_261:\n        /* \"#utility.yul\":6384:6387   */\n      dup3\n        /* \"#utility.yul\":6377:6422   */\n      mstore\n        /* \"#utility.yul\":6286:6428   */\n      pop\n      pop\n      jump\t// out\n        /* \"#utility.yul\":6434:6533   */\n    tag_153:\n        /* \"#utility.yul\":6486:6492   */\n      0x00\n        /* \"#utility.yul\":6520:6525   */\n      dup2\n        /* \"#utility.yul\":6514:6526   */\n      mload\n        /* \"#utility.yul\":6504:6526   */\n      swap1\n      pop\n        /* \"#utility.yul\":6434:6533   */\n      swap2\n      swap1\n      pop\n      jump\t// out\n        /* \"#utility.yul\":6539:6708   */\n    tag_154:\n        /* \"#utility.yul\":6623:6634   */\n      0x00\n        /* \"#utility.yul\":6657:6663   */\n      dup3\n        /* \"#utility.yul\":6652:6655   */\n      dup3\n        /* \"#utility.yul\":6645:6664   */\n      mstore\n        /* \"#utility.yul\":6697:6701   */\n      0x20\n        /* \"#utility.yul\":6692:6695   */\n      dup3\n        /* \"#utility.yul\":6688:6702   */\n      add\n        /* \"#utility.yul\":6673:6702   */\n      swap1\n      pop\n        /* \"#utility.yul\":6539:6708   */\n      swap3\n      swap2\n      pop\n      pop\n      jump\t// out\n        /* \"#utility.yul\":6714:6853   */\n    tag_155:\n        /* \"#utility.yul\":6803:6809   */\n      dup3\n        /* \"#utility.yul\":6798:6801   */\n      dup2\n        /* \"#utility.yul\":6793:6796   */\n      dup4\n        /* \"#utility.yul\":6787:6810   */\n      mcopy\n        /* \"#utility.yul\":6844:6845   */\n      0x00\n        /* \"#utility.yul\":6835:6841   */\n      dup4\n        /* \"#utility.yul\":6830:6833   */\n      dup4\n        /* \"#utility.yul\":6826:6842   */\n      add\n        /* \"#utility.yul\":6819:6846   */\n      mstore\n        /* \"#utility.yul\":6714:6853   */\n      pop\n      pop\n      pop\n      jump\t// out\n        /* \"#utility.yul\":6859:7236   */\n    tag_156:\n        /* \"#utility.yul\":6947:6950   */\n      0x00\n        /* \"#utility.yul\":6975:7014   */\n      tag_266\n        /* \"#utility.yul\":7008:7013   */\n      dup3\n        /* \"#utility.yul\":6975:7014   */\n      tag_153\n      jump\t// in\n    tag_266:\n        /* \"#utility.yul\":7030:7101   */\n      tag_267\n        /* \"#utility.yul\":7094:7100   */\n      dup2\n        /* \"#utility.yul\":7089:7092   */\n      dup6\n        /* \"#utility.yul\":7030:7101   */\n      tag_154\n      jump\t// in\n    tag_267:\n        /* \"#utility.yul\":7023:7101   */\n      swap4\n      pop\n        /* \"#utility.yul\":7110:7175   */\n      tag_268\n        /* \"#utility.yul\":7168:7174   */\n      dup2\n        /* \"#utility.yul\":7163:7166   */\n      dup6\n        /* \"#utility.yul\":7156:7160   */\n      0x20\n        /* \"#utility.yul\":7149:7154   */\n      dup7\n        /* \"#utility.yul\":7145:7161   */\n      add\n        /* \"#utility.yul\":7110:7175   */\n      tag_155\n      jump\t// in\n    tag_268:\n        /* \"#utility.yul\":7200:7229   */\n      tag_269\n        /* \"#utility.yul\":7222:7228   */\n      dup2\n        /* \"#utility.yul\":7200:7229   */\n      tag_137\n      jump\t// in\n    tag_269:\n        /* \"#utility.yul\":7195:7198   */\n      dup5\n        /* \"#utility.yul\":7191:7230   */\n      add\n        /* \"#utility.yul\":7184:7230   */\n      swap2\n      pop\n        /* \"#utility.yul\":6951:7236   */\n      pop\n        /* \"#utility.yul\":6859:7236   */\n      swap3\n      swap2\n      pop\n      pop\n      jump\t// out\n        /* \"#utility.yul\":7242:7351   */\n    tag_157:\n        /* \"#utility.yul\":7323:7344   */\n      tag_271\n        /* \"#utility.yul\":7338:7343   */\n      dup2\n        /* \"#utility.yul\":7323:7344   */\n      tag_148\n      jump\t// in\n    tag_271:\n        /* \"#utility.yul\":7318:7321   */\n      dup3\n        /* \"#utility.yul\":7311:7345   */\n      mstore\n        /* \"#utility.yul\":7242:7351   */\n      pop\n      pop\n      jump\t// out\n        /* \"#utility.yul\":7357:8334   */\n    tag_28:\n        /* \"#utility.yul\":7640:7644   */\n      0x00\n        /* \"#utility.yul\":7678:7681   */\n      0xc0\n        /* \"#utility.yul\":7667:7676   */\n      dup3\n        /* \"#utility.yul\":7663:7682   */\n      add\n        /* \"#utility.yul\":7655:7682   */\n      swap1\n      pop\n        /* \"#utility.yul\":7692:7779   */\n      tag_273\n        /* \"#utility.yul\":7776:7777   */\n      0x00\n        /* \"#utility.yul\":7765:7774   */\n      dup4\n        /* \"#utility.yul\":7761:7778   */\n      add\n        /* \"#utility.yul\":7752:7758   */\n      dup10\n        /* \"#utility.yul\":7692:7779   */\n      tag_152\n      jump\t// in\n    tag_273:\n        /* \"#utility.yul\":7826:7835   */\n      dup2\n        /* \"#utility.yul\":7820:7824   */\n      dup2\n        /* \"#utility.yul\":7816:7836   */\n      sub\n        /* \"#utility.yul\":7811:7813   */\n      0x20\n        /* \"#utility.yul\":7800:7809   */\n      dup4\n        /* \"#utility.yul\":7796:7814   */\n      add\n        /* \"#utility.yul\":7789:7837   */\n      mstore\n        /* \"#utility.yul\":7854:7932   */\n      tag_274\n        /* \"#utility.yul\":7927:7931   */\n      dup2\n        /* \"#utility.yul\":7918:7924   */\n      dup9\n        /* \"#utility.yul\":7854:7932   */\n      tag_156\n      jump\t// in\n    tag_274:\n        /* \"#utility.yul\":7846:7932   */\n      swap1\n      pop\n        /* \"#utility.yul\":7979:7988   */\n      dup2\n        /* \"#utility.yul\":7973:7977   */\n      dup2\n        /* \"#utility.yul\":7969:7989   */\n      sub\n        /* \"#utility.yul\":7964:7966   */\n      0x40\n        /* \"#utility.yul\":7953:7962   */\n      dup4\n        /* \"#utility.yul\":7949:7967   */\n      add\n        /* \"#utility.yul\":7942:7990   */\n      mstore\n        /* \"#utility.yul\":8007:8085   */\n      tag_275\n        /* \"#utility.yul\":8080:8084   */\n      dup2\n        /* \"#utility.yul\":8071:8077   */\n      dup8\n        /* \"#utility.yul\":8007:8085   */\n      tag_156\n      jump\t// in\n    tag_275:\n        /* \"#utility.yul\":7999:8085   */\n      swap1\n      pop\n        /* \"#utility.yul\":8095:8167   */\n      tag_276\n        /* \"#utility.yul\":8163:8165   */\n      0x60\n        /* \"#utility.yul\":8152:8161   */\n      dup4\n        /* \"#utility.yul\":8148:8166   */\n      add\n        /* \"#utility.yul\":8139:8145   */\n      dup7\n        /* \"#utility.yul\":8095:8167   */\n      tag_151\n      jump\t// in\n    tag_276:\n        /* \"#utility.yul\":8177:8250   */\n      tag_277\n        /* \"#utility.yul\":8245:8248   */\n      0x80\n        /* \"#utility.yul\":8234:8243   */\n      dup4\n        /* \"#utility.yul\":8230:8249   */\n      add\n        /* \"#utility.yul\":8221:8227   */\n      dup6\n        /* \"#utility.yul\":8177:8250   */\n      tag_151\n      jump\t// in\n    tag_277:\n        /* \"#utility.yul\":8260:8327   */\n      tag_278\n        /* \"#utility.yul\":8322:8325   */\n      0xa0\n        /* \"#utility.yul\":8311:8320   */\n      dup4\n        /* \"#utility.yul\":8307:8326   */\n      add\n        /* \"#utility.yul\":8298:8304   */\n      dup5\n        /* \"#utility.yul\":8260:8327   */\n      tag_157\n      jump\t// in\n    tag_278:\n        /* \"#utility.yul\":7357:8334   */\n      swap8\n      swap7\n      pop\n      pop\n      pop\n      pop\n      pop\n      pop\n      pop\n      jump\t// out\n        /* \"#utility.yul\":8340:8436   */\n    tag_158:\n        /* \"#utility.yul\":8377:8384   */\n      0x00\n        /* \"#utility.yul\":8406:8430   */\n      tag_280\n        /* \"#utility.yul\":8424:8429   */\n      dup3\n        /* \"#utility.yul\":8406:8430   */\n      tag_131\n      jump\t// in\n    tag_280:\n        /* \"#utility.yul\":8395:8430   */\n      swap1\n      pop\n        /* \"#utility.yul\":8340:8436   */\n      swap2\n      swap1\n      pop\n      jump\t// out\n        /* \"#utility.yul\":8442:8564   */\n    tag_159:\n        /* \"#utility.yul\":8515:8539   */\n      tag_282\n        /* \"#utility.yul\":8533:8538   */\n      dup2\n        /* \"#utility.yul\":8515:8539   */\n      tag_158\n      jump\t// in\n    tag_282:\n        /* \"#utility.yul\":8508:8513   */\n      dup2\n        /* \"#utility.yul\":8505:8540   */\n      eq\n        /* \"#utility.yul\":8495:8558   */\n      tag_283\n      jumpi\n        /* \"#utility.yul\":8554:8555   */\n      0x00\n        /* \"#utility.yul\":8551:8552   */\n      dup1\n        /* \"#utility.yul\":8544:8556   */\n      revert\n        /* \"#utility.yul\":8495:8558   */\n    tag_283:\n        /* \"#utility.yul\":8442:8564   */\n      pop\n      jump\t// out\n        /* \"#utility.yul\":8570:8709   */\n    tag_160:\n        /* \"#utility.yul\":8616:8621   */\n      0x00\n        /* \"#utility.yul\":8654:8660   */\n      dup2\n        /* \"#utility.yul\":8641:8661   */\n      calldataload\n        /* \"#utility.yul\":8632:8661   */\n      swap1\n      pop\n        /* \"#utility.yul\":8670:8703   */\n      tag_285\n        /* \"#utility.yul\":8697:8702   */\n      dup2\n        /* \"#utility.yul\":8670:8703   */\n      tag_159\n      jump\t// in\n    tag_285:\n        /* \"#utility.yul\":8570:8709   */\n      swap3\n      swap2\n      pop\n      pop\n      jump\t// out\n        /* \"#utility.yul\":8715:9044   */\n    tag_32:\n        /* \"#utility.yul\":8774:8780   */\n      0x00\n        /* \"#utility.yul\":8823:8825   */\n      0x20\n        /* \"#utility.yul\":8811:8820   */\n      dup3\n        /* \"#utility.yul\":8802:8809   */\n      dup5\n        /* \"#utility.yul\":8798:8821   */\n      sub\n        /* \"#utility.yul\":8794:8826   */\n      slt\n        /* \"#utility.yul\":8791:8910   */\n      iszero\n      tag_287\n      jumpi\n        /* \"#utility.yul\":8829:8908   */\n      tag_288\n      tag_129\n      jump\t// in\n    tag_288:\n        /* \"#utility.yul\":8791:8910   */\n    tag_287:\n        /* \"#utility.yul\":8949:8950   */\n      0x00\n        /* \"#utility.yul\":8974:9027   */\n      tag_289\n        /* \"#utility.yul\":9019:9026   */\n      dup5\n        /* \"#utility.yul\":9010:9016   */\n      dup3\n        /* \"#utility.yul\":8999:9008   */\n      dup6\n        /* \"#utility.yul\":8995:9017   */\n      add\n        /* \"#utility.yul\":8974:9027   */\n      tag_160\n      jump\t// in\n    tag_289:\n        /* \"#utility.yul\":8964:9027   */\n      swap2\n      pop\n        /* \"#utility.yul\":8920:9037   */\n      pop\n        /* \"#utility.yul\":8715:9044   */\n      swap3\n      swap2\n      pop\n      pop\n      jump\t// out\n        /* \"#utility.yul\":9050:9260   */\n    tag_35:\n        /* \"#utility.yul\":9137:9141   */\n      0x00\n        /* \"#utility.yul\":9175:9177   */\n      0x20\n        /* \"#utility.yul\":9164:9173   */\n      dup3\n        /* \"#utility.yul\":9160:9178   */\n      add\n        /* \"#utility.yul\":9152:9178   */\n      swap1\n      pop\n        /* \"#utility.yul\":9188:9253   */\n      tag_291\n        /* \"#utility.yul\":9250:9251   */\n      0x00\n        /* \"#utility.yul\":9239:9248   */\n      dup4\n        /* \"#utility.yul\":9235:9252   */\n      add\n        /* \"#utility.yul\":9226:9232   */\n      dup5\n        /* \"#utility.yul\":9188:9253   */\n      tag_157\n      jump\t// in\n    tag_291:\n        /* \"#utility.yul\":9050:9260   */\n      swap3\n      swap2\n      pop\n      pop\n      jump\t// out\n        /* \"#utility.yul\":9266:9497   */\n    tag_161:\n        /* \"#utility.yul\":9406:9440   */\n      0x4f6e6c7920746865206f776e65722063616e20616464206b69647320746f2074\n        /* \"#utility.yul\":9402:9403   */\n      0x00\n        /* \"#utility.yul\":9394:9400   */\n      dup3\n        /* \"#utility.yul\":9390:9404   */\n      add\n        /* \"#utility.yul\":9383:9441   */\n      mstore\n        /* \"#utility.yul\":9475:9489   */\n      0x68697320636f6e74726163740000000000000000000000000000000000000000\n        /* \"#utility.yul\":9470:9472   */\n      0x20\n        /* \"#utility.yul\":9462:9468   */\n      dup3\n        /* \"#utility.yul\":9458:9473   */\n      add\n        /* \"#utility.yul\":9451:9490   */\n      mstore\n        /* \"#utility.yul\":9266:9497   */\n      pop\n      jump\t// out\n        /* \"#utility.yul\":9503:9869   */\n    tag_162:\n        /* \"#utility.yul\":9645:9648   */\n      0x00\n        /* \"#utility.yul\":9666:9733   */\n      tag_294\n        /* \"#utility.yul\":9730:9732   */\n      0x2c\n        /* \"#utility.yul\":9725:9728   */\n      dup4\n        /* \"#utility.yul\":9666:9733   */\n      tag_154\n      jump\t// in\n    tag_294:\n        /* \"#utility.yul\":9659:9733   */\n      swap2\n      pop\n        /* \"#utility.yul\":9742:9835   */\n      tag_295\n        /* \"#utility.yul\":9831:9834   */\n      dup3\n        /* \"#utility.yul\":9742:9835   */\n      tag_161\n      jump\t// in\n    tag_295:\n        /* \"#utility.yul\":9860:9862   */\n      0x40\n        /* \"#utility.yul\":9855:9858   */\n      dup3\n        /* \"#utility.yul\":9851:9863   */\n      add\n        /* \"#utility.yul\":9844:9863   */\n      swap1\n      pop\n        /* \"#utility.yul\":9503:9869   */\n      swap2\n      swap1\n      pop\n      jump\t// out\n        /* \"#utility.yul\":9875:10294   */\n    tag_42:\n        /* \"#utility.yul\":10041:10045   */\n      0x00\n        /* \"#utility.yul\":10079:10081   */\n      0x20\n        /* \"#utility.yul\":10068:10077   */\n      dup3\n        /* \"#utility.yul\":10064:10082   */\n      add\n        /* \"#utility.yul\":10056:10082   */\n      swap1\n      pop\n        /* \"#utility.yul\":10128:10137   */\n      dup2\n        /* \"#utility.yul\":10122:10126   */\n      dup2\n        /* \"#utility.yul\":10118:10138   */\n      sub\n        /* \"#utility.yul\":10114:10115   */\n      0x00\n        /* \"#utility.yul\":10103:10112   */\n      dup4\n        /* \"#utility.yul\":10099:10116   */\n      add\n        /* \"#utility.yul\":10092:10139   */\n      mstore\n        /* \"#utility.yul\":10156:10287   */\n      tag_297\n        /* \"#utility.yul\":10282:10286   */\n      dup2\n        /* \"#utility.yul\":10156:10287   */\n      tag_162\n      jump\t// in\n    tag_297:\n        /* \"#utility.yul\":10148:10287   */\n      swap1\n      pop\n        /* \"#utility.yul\":9875:10294   */\n      swap2\n      swap1\n      pop\n      jump\t// out\n        /* \"#utility.yul\":10300:10480   */\n    tag_163:\n        /* \"#utility.yul\":10348:10425   */\n      0x4e487b7100000000000000000000000000000000000000000000000000000000\n        /* \"#utility.yul\":10345:10346   */\n      0x00\n        /* \"#utility.yul\":10338:10426   */\n      mstore\n        /* \"#utility.yul\":10445:10449   */\n      0x22\n        /* \"#utility.yul\":10442:10443   */\n      0x04\n        /* \"#utility.yul\":10435:10450   */\n      mstore\n        /* \"#utility.yul\":10469:10473   */\n      0x24\n        /* \"#utility.yul\":10466:10467   */\n      0x00\n        /* \"#utility.yul\":10459:10474   */\n      revert\n        /* \"#utility.yul\":10486:10806   */\n    tag_76:\n        /* \"#utility.yul\":10530:10536   */\n      0x00\n        /* \"#utility.yul\":10567:10568   */\n      0x02\n        /* \"#utility.yul\":10561:10565   */\n      dup3\n        /* \"#utility.yul\":10557:10569   */\n      div\n        /* \"#utility.yul\":10547:10569   */\n      swap1\n      pop\n        /* \"#utility.yul\":10614:10615   */\n      0x01\n        /* \"#utility.yul\":10608:10612   */\n      dup3\n        /* \"#utility.yul\":10604:10616   */\n      and\n        /* \"#utility.yul\":10635:10653   */\n      dup1\n        /* \"#utility.yul\":10625:10706   */\n      tag_300\n      jumpi\n        /* \"#utility.yul\":10691:10695   */\n      0x7f\n        /* \"#utility.yul\":10683:10689   */\n      dup3\n        /* \"#utility.yul\":10679:10696   */\n      and\n        /* \"#utility.yul\":10669:10696   */\n      swap2\n      pop\n        /* \"#utility.yul\":10625:10706   */\n    tag_300:\n        /* \"#utility.yul\":10753:10755   */\n      0x20\n        /* \"#utility.yul\":10745:10751   */\n      dup3\n        /* \"#utility.yul\":10742:10756   */\n      lt\n        /* \"#utility.yul\":10722:10740   */\n      dup2\n        /* \"#utility.yul\":10719:10757   */\n      sub\n        /* \"#utility.yul\":10716:10800   */\n      tag_301\n      jumpi\n        /* \"#utility.yul\":10772:10790   */\n      tag_302\n      tag_163\n      jump\t// in\n    tag_302:\n        /* \"#utility.yul\":10716:10800   */\n    tag_301:\n        /* \"#utility.yul\":10537:10806   */\n      pop\n        /* \"#utility.yul\":10486:10806   */\n      swap2\n      swap1\n      pop\n      jump\t// out\n        /* \"#utility.yul\":10812:10953   */\n    tag_164:\n        /* \"#utility.yul\":10861:10865   */\n      0x00\n        /* \"#utility.yul\":10884:10887   */\n      dup2\n        /* \"#utility.yul\":10876:10887   */\n      swap1\n      pop\n        /* \"#utility.yul\":10907:10910   */\n      dup2\n        /* \"#utility.yul\":10904:10905   */\n      0x00\n        /* \"#utility.yul\":10897:10911   */\n      mstore\n        /* \"#utility.yul\":10941:10945   */\n      0x20\n        /* \"#utility.yul\":10938:10939   */\n      0x00\n        /* \"#utility.yul\":10928:10946   */\n      keccak256\n        /* \"#utility.yul\":10920:10946   */\n      swap1\n      pop\n        /* \"#utility.yul\":10812:10953   */\n      swap2\n      swap1\n      pop\n      jump\t// out\n        /* \"#utility.yul\":10959:11052   */\n    tag_165:\n        /* \"#utility.yul\":10996:11002   */\n      0x00\n        /* \"#utility.yul\":11043:11045   */\n      0x20\n        /* \"#utility.yul\":11038:11040   */\n      0x1f\n        /* \"#utility.yul\":11031:11036   */\n      dup4\n        /* \"#utility.yul\":11027:11041   */\n      add\n        /* \"#utility.yul\":11023:11046   */\n      div\n        /* \"#utility.yul\":11013:11046   */\n      swap1\n      pop\n        /* \"#utility.yul\":10959:11052   */\n      swap2\n      swap1\n      pop\n      jump\t// out\n        /* \"#utility.yul\":11058:11165   */\n    tag_166:\n        /* \"#utility.yul\":11102:11110   */\n      0x00\n        /* \"#utility.yul\":11152:11157   */\n      dup3\n        /* \"#utility.yul\":11146:11150   */\n      dup3\n        /* \"#utility.yul\":11142:11158   */\n      shl\n        /* \"#utility.yul\":11121:11158   */\n      swap1\n      pop\n        /* \"#utility.yul\":11058:11165   */\n      swap3\n      swap2\n      pop\n      pop\n      jump\t// out\n        /* \"#utility.yul\":11171:11564   */\n    tag_167:\n        /* \"#utility.yul\":11240:11246   */\n      0x00\n        /* \"#utility.yul\":11290:11291   */\n      0x08\n        /* \"#utility.yul\":11278:11288   */\n      dup4\n        /* \"#utility.yul\":11274:11292   */\n      mul\n        /* \"#utility.yul\":11313:11410   */\n      tag_307\n        /* \"#utility.yul\":11343:11409   */\n      0xffffffffffffffffffffffffffffffffffffffffffffffffffffffffffffffff\n        /* \"#utility.yul\":11332:11341   */\n      dup3\n        /* \"#utility.yul\":11313:11410   */\n      tag_166\n      jump\t// in\n    tag_307:\n        /* \"#utility.yul\":11431:11470   */\n      tag_308\n        /* \"#utility.yul\":11461:11469   */\n      dup7\n        /* \"#utility.yul\":11450:11459   */\n      dup4\n        /* \"#utility.yul\":11431:11470   */\n      tag_166\n      jump\t// in\n    tag_308:\n        /* \"#utility.yul\":11419:11470   */\n      swap6\n      pop\n        /* \"#utility.yul\":11503:11507   */\n      dup1\n        /* \"#utility.yul\":11499:11508   */\n      not\n        /* \"#utility.yul\":11492:11497   */\n      dup5\n        /* \"#utility.yul\":11488:11509   */\n      and\n        /* \"#utility.yul\":11479:11509   */\n      swap4\n      pop\n        /* \"#utility.yul\":11552:11556   */\n      dup1\n        /* \"#utility.yul\":11542:11550   */\n      dup7\n        /* \"#utility.yul\":11538:11557   */\n      and\n        /* \"#utility.yul\":11531:11536   */\n      dup5\n        /* \"#utility.yul\":11528:11558   */\n      or\n        /* \"#utility.yul\":11518:11558   */\n      swap3\n      pop\n        /* \"#utility.yul\":11247:11564   */\n      pop\n      pop\n        /* \"#utility.yul\":11171:11564   */\n      swap4\n      swap3\n      pop\n      pop\n      pop\n      jump\t// out\n        /* \"#utility.yul\":11570:11630   */\n    tag_168:\n        /* \"#utility.yul\":11598:11601   */\n      0x00\n        /* \"#utility.yul\":11619:11624   */\n      dup2\n        /* \"#utility.yul\":11612:11624   */\n      swap1\n      pop\n        /* \"#utility.yul\":11570:11630   */\n      swap2\n      swap1\n      pop\n      jump\t// out\n        /* \"#utility.yul\":11636:11778   */\n    tag_169:\n        /* \"#utility.yul\":11686:11695   */\n      0x00\n        /* \"#utility.yul\":11719:11772   */\n      tag_311\n        /* \"#utility.yul\":11737:11771   */\n      tag_312\n        /* \"#utility.yul\":11746:11770   */\n      tag_313\n        /* \"#utility.yul\":11764:11769   */\n      dup5\n        /* \"#utility.yul\":11746:11770   */\n      tag_145\n      jump\t// in\n    tag_313:\n        /* \"#utility.yul\":11737:11771   */\n      tag_168\n      jump\t// in\n    tag_312:\n        /* \"#utility.yul\":11719:11772   */\n      tag_145\n      jump\t// in\n    tag_311:\n        /* \"#utility.yul\":11706:11772   */\n      swap1\n      pop\n        /* \"#utility.yul\":11636:11778   */\n      swap2\n      swap1\n      pop\n      jump\t// out\n        /* \"#utility.yul\":11784:11859   */\n    tag_170:\n        /* \"#utility.yul\":11827:11830   */\n      0x00\n        /* \"#utility.yul\":11848:11853   */\n      dup2\n        /* \"#utility.yul\":11841:11853   */\n      swap1\n      pop\n        /* \"#utility.yul\":11784:11859   */\n      swap2\n      swap1\n      pop\n      jump\t// out\n        /* \"#utility.yul\":11865:12134   */\n    tag_171:\n        /* \"#utility.yul\":11975:12014   */\n      tag_316\n        /* \"#utility.yul\":12006:12013   */\n      dup4\n        /* \"#utility.yul\":11975:12014   */\n      tag_169\n      jump\t// in\n    tag_316:\n        /* \"#utility.yul\":12036:12127   */\n      tag_317\n        /* \"#utility.yul\":12085:12126   */\n      tag_318\n        /* \"#utility.yul\":12109:12125   */\n      dup3\n        /* \"#utility.yul\":12085:12126   */\n      tag_170\n      jump\t// in\n    tag_318:\n        /* \"#utility.yul\":12077:12083   */\n      dup5\n        /* \"#utility.yul\":12070:12074   */\n      dup5\n        /* \"#utility.yul\":12064:12075   */\n      sload\n        /* \"#utility.yul\":12036:12127   */\n      tag_167\n      jump\t// in\n    tag_317:\n        /* \"#utility.yul\":12030:12034   */\n      dup3\n        /* \"#utility.yul\":12023:12128   */\n      sstore\n        /* \"#utility.yul\":11941:12134   */\n      pop\n        /* \"#utility.yul\":11865:12134   */\n      pop\n      pop\n      pop\n      jump\t// out\n        /* \"#utility.yul\":12140:12213   */\n    tag_172:\n        /* \"#utility.yul\":12185:12188   */\n      0x00\n        /* \"#utility.yul\":12140:12213   */\n      swap1\n      jump\t// out\n        /* \"#utility.yul\":12219:12408   */\n    tag_173:\n        /* \"#utility.yul\":12296:12328   */\n      tag_321\n      tag_172\n      jump\t// in\n    tag_321:\n        /* \"#utility.yul\":12337:12402   */\n      tag_322\n        /* \"#utility.yul\":12395:12401   */\n      dup2\n        /* \"#utility.yul\":12387:12393   */\n      dup5\n        /* \"#utility.yul\":12381:12385   */\n      dup5\n        /* \"#utility.yul\":12337:12402   */\n      tag_171\n      jump\t// in\n    tag_322:\n        /* \"#utility.yul\":12272:12408   */\n      pop\n        /* \"#utility.yul\":12219:12408   */\n      pop\n      pop\n      jump\t// out\n        /* \"#utility.yul\":12414:12600   */\n    tag_174:\n        /* \"#utility.yul\":12474:12594   */\n    tag_324:\n        /* \"#utility.yul\":12491:12494   */\n      dup2\n        /* \"#utility.yul\":12484:12489   */\n      dup2\n        /* \"#utility.yul\":12481:12495   */\n      lt\n        /* \"#utility.yul\":12474:12594   */\n      iszero\n      tag_326\n      jumpi\n        /* \"#utility.yul\":12545:12584   */\n      tag_327\n        /* \"#utility.yul\":12582:12583   */\n      0x00\n        /* \"#utility.yul\":12575:12580   */\n      dup3\n        /* \"#utility.yul\":12545:12584   */\n      tag_173\n      jump\t// in\n    tag_327:\n        /* \"#utility.yul\":12518:12519   */\n      0x01\n        /* \"#utility.yul\":12511:12516   */\n      dup2\n        /* \"#utility.yul\":12507:12520   */\n      add\n        /* \"#utility.yul\":12498:12520   */\n      swap1\n      pop\n        /* \"#utility.yul\":12474:12594   */\n      jump(tag_324)\n    tag_326:\n        /* \"#utility.yul\":12414:12600   */\n      pop\n      pop\n      jump\t// out\n        /* \"#utility.yul\":12606:13149   */\n    tag_175:\n        /* \"#utility.yul\":12707:12709   */\n      0x1f\n        /* \"#utility.yul\":12702:12705   */\n      dup3\n        /* \"#utility.yul\":12699:12710   */\n      gt\n        /* \"#utility.yul\":12696:13142   */\n      iszero\n      tag_329\n      jumpi\n        /* \"#utility.yul\":12741:12779   */\n      tag_330\n        /* \"#utility.yul\":12773:12778   */\n      dup2\n        /* \"#utility.yul\":12741:12779   */\n      tag_164\n      jump\t// in\n    tag_330:\n        /* \"#utility.yul\":12825:12854   */\n      tag_331\n        /* \"#utility.yul\":12843:12853   */\n      dup5\n        /* \"#utility.yul\":12825:12854   */\n      tag_165\n      jump\t// in\n    tag_331:\n        /* \"#utility.yul\":12815:12823   */\n      dup2\n        /* \"#utility.yul\":12811:12855   */\n      add\n        /* \"#utility.yul\":13008:13010   */\n      0x20\n        /* \"#utility.yul\":12996:13006   */\n      dup6\n        /* \"#utility.yul\":12993:13011   */\n      lt\n        /* \"#utility.yul\":12990:13039   */\n      iszero\n      tag_332\n      jumpi\n        /* \"#utility.yul\":13029:13037   */\n      dup2\n        /* \"#utility.yul\":13014:13037   */\n      swap1\n      pop\n        /* \"#utility.yul\":12990:13039   */\n    tag_332:\n        /* \"#utility.yul\":13052:13132   */\n      tag_333\n        /* \"#utility.yul\":13108:13130   */\n      tag_334\n        /* \"#utility.yul\":13126:13129   */\n      dup6\n        /* \"#utility.yul\":13108:13130   */\n      tag_165\n      jump\t// in\n    tag_334:\n        /* \"#utility.yul\":13098:13106   */\n      dup4\n        /* \"#utility.yul\":13094:13131   */\n      add\n        /* \"#utility.yul\":13081:13092   */\n      dup3\n        /* \"#utility.yul\":13052:13132   */\n      tag_174\n      jump\t// in\n    tag_333:\n        /* \"#utility.yul\":12711:13142   */\n      pop\n      pop\n        /* \"#utility.yul\":12696:13142   */\n    tag_329:\n        /* \"#utility.yul\":12606:13149   */\n      pop\n      pop\n      pop\n      jump\t// out\n        /* \"#utility.yul\":13155:13272   */\n    tag_176:\n        /* \"#utility.yul\":13209:13217   */\n      0x00\n        /* \"#utility.yul\":13259:13264   */\n      dup3\n        /* \"#utility.yul\":13253:13257   */\n      dup3\n        /* \"#utility.yul\":13249:13265   */\n      shr\n        /* \"#utility.yul\":13228:13265   */\n      swap1\n      pop\n        /* \"#utility.yul\":13155:13272   */\n      swap3\n      swap2\n      pop\n      pop\n      jump\t// out\n        /* \"#utility.yul\":13278:13447   */\n    tag_177:\n        /* \"#utility.yul\":13322:13328   */\n      0x00\n        /* \"#utility.yul\":13355:13406   */\n      tag_337\n        /* \"#utility.yul\":13403:13404   */\n      0x00\n        /* \"#utility.yul\":13399:13405   */\n      not\n        /* \"#utility.yul\":13391:13396   */\n      dup5\n        /* \"#utility.yul\":13388:13389   */\n      0x08\n        /* \"#utility.yul\":13384:13397   */\n      mul\n        /* \"#utility.yul\":13355:13406   */\n      tag_176\n      jump\t// in\n    tag_337:\n        /* \"#utility.yul\":13351:13407   */\n      not\n        /* \"#utility.yul\":13436:13440   */\n      dup1\n        /* \"#utility.yul\":13430:13434   */\n      dup4\n        /* \"#utility.yul\":13426:13441   */\n      and\n        /* \"#utility.yul\":13416:13441   */\n      swap2\n      pop\n        /* \"#utility.yul\":13329:13447   */\n      pop\n        /* \"#utility.yul\":13278:13447   */\n      swap3\n      swap2\n      pop\n      pop\n      jump\t// out\n        /* \"#utility.yul\":13452:13747   */\n    tag_178:\n        /* \"#utility.yul\":13528:13532   */\n      0x00\n        /* \"#utility.yul\":13674:13703   */\n      tag_339\n        /* \"#utility.yul\":13699:13702   */\n      dup4\n        /* \"#utility.yul\":13693:13697   */\n      dup4\n        /* \"#utility.yul\":13674:13703   */\n      tag_177\n      jump\t// in\n    tag_339:\n        /* \"#utility.yul\":13666:13703   */\n      swap2\n      pop\n        /* \"#utility.yul\":13736:13739   */\n      dup3\n        /* \"#utility.yul\":13733:13734   */\n      0x02\n        /* \"#utility.yul\":13729:13740   */\n      mul\n        /* \"#utility.yul\":13723:13727   */\n      dup3\n        /* \"#utility.yul\":13720:13741   */\n      or\n        /* \"#utility.yul\":13712:13741   */\n      swap1\n      pop\n        /* \"#utility.yul\":13452:13747   */\n      swap3\n      swap2\n      pop\n      pop\n      jump\t// out\n        /* \"#utility.yul\":13752:15147   */\n    tag_46:\n        /* \"#utility.yul\":13869:13906   */\n      tag_341\n        /* \"#utility.yul\":13902:13905   */\n      dup3\n        /* \"#utility.yul\":13869:13906   */\n      tag_153\n      jump\t// in\n    tag_341:\n        /* \"#utility.yul\":13971:13989   */\n      0xffffffffffffffff\n        /* \"#utility.yul\":13963:13969   */\n      dup2\n        /* \"#utility.yul\":13960:13990   */\n      gt\n        /* \"#utility.yul\":13957:14013   */\n      iszero\n      tag_342\n      jumpi\n        /* \"#utility.yul\":13993:14011   */\n      tag_343\n      tag_138\n      jump\t// in\n    tag_343:\n        /* \"#utility.yul\":13957:14013   */\n    tag_342:\n        /* \"#utility.yul\":14037:14075   */\n      tag_344\n        /* \"#utility.yul\":14069:14073   */\n      dup3\n        /* \"#utility.yul\":14063:14074   */\n      sload\n        /* \"#utility.yul\":14037:14075   */\n      tag_76\n      jump\t// in\n    tag_344:\n        /* \"#utility.yul\":14122:14189   */\n      tag_345\n        /* \"#utility.yul\":14182:14188   */\n      dup3\n        /* \"#utility.yul\":14174:14180   */\n      dup3\n        /* \"#utility.yul\":14168:14172   */\n      dup6\n        /* \"#utility.yul\":14122:14189   */\n      tag_175\n      jump\t// in\n    tag_345:\n        /* \"#utility.yul\":14216:14217   */\n      0x00\n        /* \"#utility.yul\":14240:14244   */\n      0x20\n        /* \"#utility.yul\":14227:14244   */\n      swap1\n      pop\n        /* \"#utility.yul\":14272:14274   */\n      0x1f\n        /* \"#utility.yul\":14264:14270   */\n      dup4\n        /* \"#utility.yul\":14261:14275   */\n      gt\n        /* \"#utility.yul\":14289:14290   */\n      0x01\n        /* \"#utility.yul\":14284:14902   */\n      dup2\n      eq\n      tag_347\n      jumpi\n        /* \"#utility.yul\":14946:14947   */\n      0x00\n        /* \"#utility.yul\":14963:14969   */\n      dup5\n        /* \"#utility.yul\":14960:15037   */\n      iszero\n      tag_348\n      jumpi\n        /* \"#utility.yul\":15012:15021   */\n      dup3\n        /* \"#utility.yul\":15007:15010   */\n      dup8\n        /* \"#utility.yul\":15003:15022   */\n      add\n        /* \"#utility.yul\":14997:15023   */\n      mload\n        /* \"#utility.yul\":14988:15023   */\n      swap1\n      pop\n        /* \"#utility.yul\":14960:15037   */\n    tag_348:\n        /* \"#utility.yul\":15063:15130   */\n      tag_349\n        /* \"#utility.yul\":15123:15129   */\n      dup6\n        /* \"#utility.yul\":15116:15121   */\n      dup3\n        /* \"#utility.yul\":15063:15130   */\n      tag_178\n      jump\t// in\n    tag_349:\n        /* \"#utility.yul\":15057:15061   */\n      dup7\n        /* \"#utility.yul\":15050:15131   */\n      sstore\n        /* \"#utility.yul\":14919:15141   */\n      pop\n        /* \"#utility.yul\":14254:15141   */\n      jump(tag_346)\n        /* \"#utility.yul\":14284:14902   */\n    tag_347:\n        /* \"#utility.yul\":14336:14340   */\n      0x1f\n        /* \"#utility.yul\":14332:14341   */\n      not\n        /* \"#utility.yul\":14324:14330   */\n      dup5\n        /* \"#utility.yul\":14320:14342   */\n      and\n        /* \"#utility.yul\":14370:14407   */\n      tag_350\n        /* \"#utility.yul\":14402:14406   */\n      dup7\n        /* \"#utility.yul\":14370:14407   */\n      tag_164\n      jump\t// in\n    tag_350:\n        /* \"#utility.yul\":14429:14430   */\n      0x00\n        /* \"#utility.yul\":14443:14651   */\n    tag_351:\n        /* \"#utility.yul\":14457:14464   */\n      dup3\n        /* \"#utility.yul\":14454:14455   */\n      dup2\n        /* \"#utility.yul\":14451:14465   */\n      lt\n        /* \"#utility.yul\":14443:14651   */\n      iszero\n      tag_353\n      jumpi\n        /* \"#utility.yul\":14536:14545   */\n      dup5\n        /* \"#utility.yul\":14531:14534   */\n      dup10\n        /* \"#utility.yul\":14527:14546   */\n      add\n        /* \"#utility.yul\":14521:14547   */\n      mload\n        /* \"#utility.yul\":14513:14519   */\n      dup3\n        /* \"#utility.yul\":14506:14548   */\n      sstore\n        /* \"#utility.yul\":14587:14588   */\n      0x01\n        /* \"#utility.yul\":14579:14585   */\n      dup3\n        /* \"#utility.yul\":14575:14589   */\n      add\n        /* \"#utility.yul\":14565:14589   */\n      swap2\n      pop\n        /* \"#utility.yul\":14634:14636   */\n      0x20\n        /* \"#utility.yul\":14623:14632   */\n      dup6\n        /* \"#utility.yul\":14619:14637   */\n      add\n        /* \"#utility.yul\":14606:14637   */\n      swap5\n      pop\n        /* \"#utility.yul\":14480:14484   */\n      0x20\n        /* \"#utility.yul\":14477:14478   */\n      dup2\n        /* \"#utility.yul\":14473:14485   */\n      add\n        /* \"#utility.yul\":14468:14485   */\n      swap1\n      pop\n        /* \"#utility.yul\":14443:14651   */\n      jump(tag_351)\n    tag_353:\n        /* \"#utility.yul\":14679:14685   */\n      dup7\n        /* \"#utility.yul\":14670:14677   */\n      dup4\n        /* \"#utility.yul\":14667:14686   */\n      lt\n        /* \"#utility.yul\":14664:14843   */\n      iszero\n      tag_354\n      jumpi\n        /* \"#utility.yul\":14737:14746   */\n      dup5\n        /* \"#utility.yul\":14732:14735   */\n      dup10\n        /* \"#utility.yul\":14728:14747   */\n      add\n        /* \"#utility.yul\":14722:14748   */\n      mload\n        /* \"#utility.yul\":14780:14828   */\n      tag_355\n        /* \"#utility.yul\":14822:14826   */\n      0x1f\n        /* \"#utility.yul\":14814:14820   */\n      dup10\n        /* \"#utility.yul\":14810:14827   */\n      and\n        /* \"#utility.yul\":14799:14808   */\n      dup3\n        /* \"#utility.yul\":14780:14828   */\n      tag_177\n      jump\t// in\n    tag_355:\n        /* \"#utility.yul\":14772:14778   */\n      dup4\n        /* \"#utility.yul\":14765:14829   */\n      sstore\n        /* \"#utility.yul\":14687:14843   */\n      pop\n        /* \"#utility.yul\":14664:14843   */\n    tag_354:\n        /* \"#utility.yul\":14889:14890   */\n      0x01\n        /* \"#utility.yul\":14885:14886   */\n      0x02\n        /* \"#utility.yul\":14877:14883   */\n      dup9\n        /* \"#utility.yul\":14873:14887   */\n      mul\n        /* \"#utility.yul\":14869:14891   */\n      add\n        /* \"#utility.yul\":14863:14867   */\n      dup9\n        /* \"#utility.yul\":14856:14892   */\n      sstore\n        /* \"#utility.yul\":14291:14902   */\n      pop\n      pop\n      pop\n        /* \"#utility.yul\":14254:15141   */\n    tag_346:\n      pop\n        /* \"#utility.yul\":13844:15147   */\n      pop\n      pop\n      pop\n        /* \"#utility.yul\":13752:15147   */\n      pop\n      pop\n      jump\t// out\n        /* \"#utility.yul\":15153:15333   */\n    tag_53:\n        /* \"#utility.yul\":15201:15278   */\n      0x4e487b7100000000000000000000000000000000000000000000000000000000\n        /* \"#utility.yul\":15198:15199   */\n      0x00\n        /* \"#utility.yul\":15191:15279   */\n      mstore\n        /* \"#utility.yul\":15298:15302   */\n      0x32\n        /* \"#utility.yul\":15295:15296   */\n      0x04\n        /* \"#utility.yul\":15288:15303   */\n      mstore\n        /* \"#utility.yul\":15322:15326   */\n      0x24\n        /* \"#utility.yul\":15319:15320   */\n      0x00\n        /* \"#utility.yul\":15312:15327   */\n      revert\n        /* \"#utility.yul\":15339:15561   */\n    tag_179:\n        /* \"#utility.yul\":15479:15513   */\n      0x596f752063616e206f6e6c7920776974686472617720796f75206f776e204574\n        /* \"#utility.yul\":15475:15476   */\n      0x00\n        /* \"#utility.yul\":15467:15473   */\n      dup3\n        /* \"#utility.yul\":15463:15477   */\n      add\n        /* \"#utility.yul\":15456:15514   */\n      mstore\n        /* \"#utility.yul\":15548:15553   */\n      0x6865720000000000000000000000000000000000000000000000000000000000\n        /* \"#utility.yul\":15543:15545   */\n      0x20\n        /* \"#utility.yul\":15535:15541   */\n      dup3\n        /* \"#utility.yul\":15531:15546   */\n      add\n        /* \"#utility.yul\":15524:15554   */\n      mstore\n        /* \"#utility.yul\":15339:15561   */\n      pop\n      jump\t// out\n        /* \"#utility.yul\":15567:15933   */\n    tag_180:\n        /* \"#utility.yul\":15709:15712   */\n      0x00\n        /* \"#utility.yul\":15730:15797   */\n      tag_359\n        /* \"#utility.yul\":15794:15796   */\n      0x23\n        /* \"#utility.yul\":15789:15792   */\n      dup4\n        /* \"#utility.yul\":15730:15797   */\n      tag_154\n      jump\t// in\n    tag_359:\n        /* \"#utility.yul\":15723:15797   */\n      swap2\n      pop\n        /* \"#utility.yul\":15806:15899   */\n      tag_360\n        /* \"#utility.yul\":15895:15898   */\n      dup3\n        /* \"#utility.yul\":15806:15899   */\n      tag_179\n      jump\t// in\n    tag_360:\n        /* \"#utility.yul\":15924:15926   */\n      0x40\n        /* \"#utility.yul\":15919:15922   */\n      dup3\n        /* \"#utility.yul\":15915:15927   */\n      add\n        /* \"#utility.yul\":15908:15927   */\n      swap1\n      pop\n        /* \"#utility.yul\":15567:15933   */\n      swap2\n      swap1\n      pop\n      jump\t// out\n        /* \"#utility.yul\":15939:16358   */\n    tag_57:\n        /* \"#utility.yul\":16105:16109   */\n      0x00\n        /* \"#utility.yul\":16143:16145   */\n      0x20\n        /* \"#utility.yul\":16132:16141   */\n      dup3\n        /* \"#utility.yul\":16128:16146   */\n      add\n        /* \"#utility.yul\":16120:16146   */\n      swap1\n      pop\n        /* \"#utility.yul\":16192:16201   */\n      dup2\n        /* \"#utility.yul\":16186:16190   */\n      dup2\n        /* \"#utility.yul\":16182:16202   */\n      sub\n        /* \"#utility.yul\":16178:16179   */\n      0x00\n        /* \"#utility.yul\":16167:16176   */\n      dup4\n        /* \"#utility.yul\":16163:16180   */\n      add\n        /* \"#utility.yul\":16156:16203   */\n      mstore\n        /* \"#utility.yul\":16220:16351   */\n      tag_362\n        /* \"#utility.yul\":16346:16350   */\n      dup2\n        /* \"#utility.yul\":16220:16351   */\n      tag_180\n      jump\t// in\n    tag_362:\n        /* \"#utility.yul\":16212:16351   */\n      swap1\n      pop\n        /* \"#utility.yul\":15939:16358   */\n      swap2\n      swap1\n      pop\n      jump\t// out\n        /* \"#utility.yul\":16364:16596   */\n    tag_181:\n        /* \"#utility.yul\":16504:16538   */\n      0x596f75206172656e2774207065726d697474656420746f207769746864726177\n        /* \"#utility.yul\":16500:16501   */\n      0x00\n        /* \"#utility.yul\":16492:16498   */\n      dup3\n        /* \"#utility.yul\":16488:16502   */\n      add\n        /* \"#utility.yul\":16481:16539   */\n      mstore\n        /* \"#utility.yul\":16573:16588   */\n      0x20617420746869732074696d6500000000000000000000000000000000000000\n        /* \"#utility.yul\":16568:16570   */\n      0x20\n        /* \"#utility.yul\":16560:16566   */\n      dup3\n        /* \"#utility.yul\":16556:16571   */\n      add\n        /* \"#utility.yul\":16549:16589   */\n      mstore\n        /* \"#utility.yul\":16364:16596   */\n      pop\n      jump\t// out\n        /* \"#utility.yul\":16602:16968   */\n    tag_182:\n        /* \"#utility.yul\":16744:16747   */\n      0x00\n        /* \"#utility.yul\":16765:16832   */\n      tag_365\n        /* \"#utility.yul\":16829:16831   */\n      0x2d\n        /* \"#utility.yul\":16824:16827   */\n      dup4\n        /* \"#utility.yul\":16765:16832   */\n      tag_154\n      jump\t// in\n    tag_365:\n        /* \"#utility.yul\":16758:16832   */\n      swap2\n      pop\n        /* \"#utility.yul\":16841:16934   */\n      tag_366\n        /* \"#utility.yul\":16930:16933   */\n      dup3\n        /* \"#utility.yul\":16841:16934   */\n      tag_181\n      jump\t// in\n    tag_366:\n        /* \"#utility.yul\":16959:16961   */\n      0x40\n        /* \"#utility.yul\":16954:16957   */\n      dup3\n        /* \"#utility.yul\":16950:16962   */\n      add\n        /* \"#utility.yul\":16943:16962   */\n      swap1\n      pop\n        /* \"#utility.yul\":16602:16968   */\n      swap2\n      swap1\n      pop\n      jump\t// out\n        /* \"#utility.yul\":16974:17393   */\n    tag_63:\n        /* \"#utility.yul\":17140:17144   */\n      0x00\n        /* \"#utility.yul\":17178:17180   */\n      0x20\n        /* \"#utility.yul\":17167:17176   */\n      dup3\n        /* \"#utility.yul\":17163:17181   */\n      add\n        /* \"#utility.yul\":17155:17181   */\n      swap1\n      pop\n        /* \"#utility.yul\":17227:17236   */\n      dup2\n        /* \"#utility.yul\":17221:17225   */\n      dup2\n        /* \"#utility.yul\":17217:17237   */\n      sub\n        /* \"#utility.yul\":17213:17214   */\n      0x00\n        /* \"#utility.yul\":17202:17211   */\n      dup4\n        /* \"#utility.yul\":17198:17215   */\n      add\n        /* \"#utility.yul\":17191:17238   */\n      mstore\n        /* \"#utility.yul\":17255:17386   */\n      tag_368\n        /* \"#utility.yul\":17381:17385   */\n      dup2\n        /* \"#utility.yul\":17255:17386   */\n      tag_182\n      jump\t// in\n    tag_368:\n        /* \"#utility.yul\":17247:17386   */\n      swap1\n      pop\n        /* \"#utility.yul\":16974:17393   */\n      swap2\n      swap1\n      pop\n      jump\t// out\n        /* \"#utility.yul\":17399:17579   */\n    tag_183:\n        /* \"#utility.yul\":17447:17524   */\n      0x4e487b7100000000000000000000000000000000000000000000000000000000\n        /* \"#utility.yul\":17444:17445   */\n      0x00\n        /* \"#utility.yul\":17437:17525   */\n      mstore\n        /* \"#utility.yul\":17544:17548   */\n      0x11\n        /* \"#utility.yul\":17541:17542   */\n      0x04\n        /* \"#utility.yul\":17534:17549   */\n      mstore\n        /* \"#utility.yul\":17568:17572   */\n      0x24\n        /* \"#utility.yul\":17565:17566   */\n      0x00\n        /* \"#utility.yul\":17558:17573   */\n      revert\n        /* \"#utility.yul\":17585:17776   */\n    tag_124:\n        /* \"#utility.yul\":17625:17628   */\n      0x00\n        /* \"#utility.yul\":17644:17664   */\n      tag_371\n        /* \"#utility.yul\":17662:17663   */\n      dup3\n        /* \"#utility.yul\":17644:17664   */\n      tag_145\n      jump\t// in\n    tag_371:\n        /* \"#utility.yul\":17639:17664   */\n      swap2\n      pop\n        /* \"#utility.yul\":17678:17698   */\n      tag_372\n        /* \"#utility.yul\":17696:17697   */\n      dup4\n        /* \"#utility.yul\":17678:17698   */\n      tag_145\n      jump\t// in\n    tag_372:\n        /* \"#utility.yul\":17673:17698   */\n      swap3\n      pop\n        /* \"#utility.yul\":17721:17722   */\n      dup3\n        /* \"#utility.yul\":17718:17719   */\n      dup3\n        /* \"#utility.yul\":17714:17723   */\n      add\n        /* \"#utility.yul\":17707:17723   */\n      swap1\n      pop\n        /* \"#utility.yul\":17742:17745   */\n      dup1\n        /* \"#utility.yul\":17739:17740   */\n      dup3\n        /* \"#utility.yul\":17736:17746   */\n      gt\n        /* \"#utility.yul\":17733:17769   */\n      iszero\n      tag_373\n      jumpi\n        /* \"#utility.yul\":17749:17767   */\n      tag_374\n      tag_183\n      jump\t// in\n    tag_374:\n        /* \"#utility.yul\":17733:17769   */\n    tag_373:\n        /* \"#utility.yul\":17585:17776   */\n      swap3\n      swap2\n      pop\n      pop\n      jump\t// out\n        /* \"#utility.yul\":17782:17900   */\n    tag_184:\n        /* \"#utility.yul\":17869:17893   */\n      tag_376\n        /* \"#utility.yul\":17887:17892   */\n      dup2\n        /* \"#utility.yul\":17869:17893   */\n      tag_158\n      jump\t// in\n    tag_376:\n        /* \"#utility.yul\":17864:17867   */\n      dup3\n        /* \"#utility.yul\":17857:17894   */\n      mstore\n        /* \"#utility.yul\":17782:17900   */\n      pop\n      pop\n      jump\t// out\n        /* \"#utility.yul\":17906:18348   */\n    tag_127:\n        /* \"#utility.yul\":18055:18059   */\n      0x00\n        /* \"#utility.yul\":18093:18095   */\n      0x60\n        /* \"#utility.yul\":18082:18091   */\n      dup3\n        /* \"#utility.yul\":18078:18096   */\n      add\n        /* \"#utility.yul\":18070:18096   */\n      swap1\n      pop\n        /* \"#utility.yul\":18106:18177   */\n      tag_378\n        /* \"#utility.yul\":18174:18175   */\n      0x00\n        /* \"#utility.yul\":18163:18172   */\n      dup4\n        /* \"#utility.yul\":18159:18176   */\n      add\n        /* \"#utility.yul\":18150:18156   */\n      dup7\n        /* \"#utility.yul\":18106:18177   */\n      tag_184\n      jump\t// in\n    tag_378:\n        /* \"#utility.yul\":18187:18259   */\n      tag_379\n        /* \"#utility.yul\":18255:18257   */\n      0x20\n        /* \"#utility.yul\":18244:18253   */\n      dup4\n        /* \"#utility.yul\":18240:18258   */\n      add\n        /* \"#utility.yul\":18231:18237   */\n      dup6\n        /* \"#utility.yul\":18187:18259   */\n      tag_151\n      jump\t// in\n    tag_379:\n        /* \"#utility.yul\":18269:18341   */\n      tag_380\n        /* \"#utility.yul\":18337:18339   */\n      0x40\n        /* \"#utility.yul\":18326:18335   */\n      dup4\n        /* \"#utility.yul\":18322:18340   */\n      add\n        /* \"#utility.yul\":18313:18319   */\n      dup5\n        /* \"#utility.yul\":18269:18341   */\n      tag_151\n      jump\t// in\n    tag_380:\n        /* \"#utility.yul\":17906:18348   */\n      swap5\n      swap4\n      pop\n      pop\n      pop\n      pop\n      jump\t// out\n\n    auxdata: 0xa26469706673582212202031223b8df5fda886272e6747b02422f4831d4f6f5237ea4db5a10b551206c564736f6c634300081a0033\n}\n",
				"bytecode": {
					"linkReferences": {},
					"object": "6080604052348015600e575f80fd5b50335f806101000a81548173ffffffffffffffffffffffffffffffffffffffff021916908373ffffffffffffffffffffffffffffffffffffffff16021790555061134a8061005b5f395ff3fe608060405260043610610054575f3560e01c806331d575c51461005857806351cff8d914610080578063722713f71461009c5780637285fd3a146100c6578063a25db8ce14610107578063f340fa0114610143575b5f80fd5b348015610063575f80fd5b5061007e60048036038101906100799190610b27565b61015f565b005b61009a60048036038101906100959190610be8565b610306565b005b3480156100a7575f80fd5b506100b06104e3565b6040516100bd9190610c22565b60405180910390f35b3480156100d1575f80fd5b506100ec60048036038101906100e79190610c3b565b6104ea565b6040516100fe96959493929190610ce4565b60405180910390f35b348015610112575f80fd5b5061012d60048036038101906101289190610d8c565b610668565b60405161013a9190610db7565b60405180910390f35b61015d60048036038101906101589190610d8c565b610753565b005b5f8054906101000a900473ffffffffffffffffffffffffffffffffffffffff1673ffffffffffffffffffffffffffffffffffffffff163373ffffffffffffffffffffffffffffffffffffffff16146101ec576040517f08c379a00000000000000000000000000000000000000000000000000000000081526004016101e390610e40565b60405180910390fd5b60016040518060c001604052808873ffffffffffffffffffffffffffffffffffffffff168152602001878152602001868152602001858152602001848152602001831515815250908060018154018082558091505060019003905f5260205f2090600602015f909190919091505f820151815f015f6101000a81548173ffffffffffffffffffffffffffffffffffffffff021916908373ffffffffffffffffffffffffffffffffffffffff16021790555060208201518160010190816102b29190611058565b5060408201518160020190816102c89190611058565b50606082015181600301556080820151816004015560a0820151816005015f6101000a81548160ff0219169083151502179055505050505050505050565b5f6103108261075f565b90506001818154811061032657610325611127565b5b905f5260205f2090600602015f015f9054906101000a900473ffffffffffffffffffffffffffffffffffffffff1673ffffffffffffffffffffffffffffffffffffffff163373ffffffffffffffffffffffffffffffffffffffff16146103c1576040517f08c379a00000000000000000000000000000000000000000000000000000000081526004016103b8906111c4565b60405180910390fd5b60011515600182815481106103d9576103d8611127565b5b905f5260205f2090600602016005015f9054906101000a900460ff16151514610437576040517f08c379a000000000000000000000000000000000000000000000000000000000815260040161042e90611252565b60405180910390fd5b6001818154811061044b5761044a611127565b5b905f5260205f2090600602015f015f9054906101000a900473ffffffffffffffffffffffffffffffffffffffff1673ffffffffffffffffffffffffffffffffffffffff166108fc600183815481106104a6576104a5611127565b5b905f5260205f2090600602016004015490811502906040515f60405180830381858888f193505050501580156104de573d5f803e3d5ffd5b505050565b5f47905090565b600181815481106104f9575f80fd5b905f5260205f2090600602015f91509050805f015f9054906101000a900473ffffffffffffffffffffffffffffffffffffffff169080600101805461053d90610e8b565b80601f016020809104026020016040519081016040528092919081815260200182805461056990610e8b565b80156105b45780601f1061058b576101008083540402835291602001916105b4565b820191905f5260205f20905b81548152906001019060200180831161059757829003601f168201915b5050505050908060020180546105c990610e8b565b80601f01602080910402602001604051908101604052809291908181526020018280546105f590610e8b565b80156106405780601f1061061757610100808354040283529160200191610640565b820191905f5260205f20905b81548152906001019060200180831161062357829003601f168201915b505050505090806003015490806004015490806005015f9054906101000a900460ff16905086565b5f806106738361075f565b90506001818154811061068957610688611127565b5b905f5260205f2090600602016003015442116106da576040517f08c379a00000000000000000000000000000000000000000000000000000000081526004016106d190611252565b60405180910390fd5b600181815481106106ee576106ed611127565b5b905f5260205f2090600602016003015442111561074957600180828154811061071a57610719611127565b5b905f5260205f2090600602016005015f6101000a81548160ff021916908315150217905550600191505061074e565b5f9150505b919050565b61075c81610808565b50565b5f805f90505b6001805490508110156107fc578273ffffffffffffffffffffffffffffffffffffffff166001828154811061079d5761079c611127565b5b905f5260205f2090600602015f015f9054906101000a900473ffffffffffffffffffffffffffffffffffffffff1673ffffffffffffffffffffffffffffffffffffffff16036107ef5780915050610803565b8080600101915050610765565b5061019490505b919050565b5f5b600180549050811015610914578173ffffffffffffffffffffffffffffffffffffffff166001828154811061084257610841611127565b5b905f5260205f2090600602015f015f9054906101000a900473ffffffffffffffffffffffffffffffffffffffff1673ffffffffffffffffffffffffffffffffffffffff16036109075734600182815481106108a05761089f611127565b5b905f5260205f2090600602016004015f8282546108bd919061129d565b925050819055507f8e5b73e270ccfdfea317ebd9d7945af60a4350ce9106cfe4284215c5cba7daa682346108ef6104e3565b6040516108fe939291906112df565b60405180910390a15b808060010191505061080a565b5050565b5f604051905090565b5f80fd5b5f80fd5b5f73ffffffffffffffffffffffffffffffffffffffff82169050919050565b5f61095282610929565b9050919050565b61096281610948565b811461096c575f80fd5b50565b5f8135905061097d81610959565b92915050565b5f80fd5b5f80fd5b5f601f19601f8301169050919050565b7f4e487b71000000000000000000000000000000000000000000000000000000005f52604160045260245ffd5b6109d18261098b565b810181811067ffffffffffffffff821117156109f0576109ef61099b565b5b80604052505050565b5f610a02610918565b9050610a0e82826109c8565b919050565b5f67ffffffffffffffff821115610a2d57610a2c61099b565b5b610a368261098b565b9050602081019050919050565b828183375f83830152505050565b5f610a63610a5e84610a13565b6109f9565b905082815260208101848484011115610a7f57610a7e610987565b5b610a8a848285610a43565b509392505050565b5f82601f830112610aa657610aa5610983565b5b8135610ab6848260208601610a51565b91505092915050565b5f819050919050565b610ad181610abf565b8114610adb575f80fd5b50565b5f81359050610aec81610ac8565b92915050565b5f8115159050919050565b610b0681610af2565b8114610b10575f80fd5b50565b5f81359050610b2181610afd565b92915050565b5f805f805f8060c08789031215610b4157610b40610921565b5b5f610b4e89828a0161096f565b965050602087013567ffffffffffffffff811115610b6f57610b6e610925565b5b610b7b89828a01610a92565b955050604087013567ffffffffffffffff811115610b9c57610b9b610925565b5b610ba889828a01610a92565b9450506060610bb989828a01610ade565b9350506080610bca89828a01610ade565b92505060a0610bdb89828a01610b13565b9150509295509295509295565b5f60208284031215610bfd57610bfc610921565b5b5f610c0a8482850161096f565b91505092915050565b610c1c81610abf565b82525050565b5f602082019050610c355f830184610c13565b92915050565b5f60208284031215610c5057610c4f610921565b5b5f610c5d84828501610ade565b91505092915050565b610c6f81610948565b82525050565b5f81519050919050565b5f82825260208201905092915050565b8281835e5f83830152505050565b5f610ca782610c75565b610cb18185610c7f565b9350610cc1818560208601610c8f565b610cca8161098b565b840191505092915050565b610cde81610af2565b82525050565b5f60c082019050610cf75f830189610c66565b8181036020830152610d098188610c9d565b90508181036040830152610d1d8187610c9d565b9050610d2c6060830186610c13565b610d396080830185610c13565b610d4660a0830184610cd5565b979650505050505050565b5f610d5b82610929565b9050919050565b610d6b81610d51565b8114610d75575f80fd5b50565b5f81359050610d8681610d62565b92915050565b5f60208284031215610da157610da0610921565b5b5f610dae84828501610d78565b91505092915050565b5f602082019050610dca5f830184610cd5565b92915050565b7f4f6e6c7920746865206f776e65722063616e20616464206b69647320746f20745f8201527f68697320636f6e74726163740000000000000000000000000000000000000000602082015250565b5f610e2a602c83610c7f565b9150610e3582610dd0565b604082019050919050565b5f6020820190508181035f830152610e5781610e1e565b9050919050565b7f4e487b71000000000000000000000000000000000000000000000000000000005f52602260045260245ffd5b5f6002820490506001821680610ea257607f821691505b602082108103610eb557610eb4610e5e565b5b50919050565b5f819050815f5260205f209050919050565b5f6020601f8301049050919050565b5f82821b905092915050565b5f60088302610f177fffffffffffffffffffffffffffffffffffffffffffffffffffffffffffffffff82610edc565b610f218683610edc565b95508019841693508086168417925050509392505050565b5f819050919050565b5f610f5c610f57610f5284610abf565b610f39565b610abf565b9050919050565b5f819050919050565b610f7583610f42565b610f89610f8182610f63565b848454610ee8565b825550505050565b5f90565b610f9d610f91565b610fa8818484610f6c565b505050565b5b81811015610fcb57610fc05f82610f95565b600181019050610fae565b5050565b601f82111561101057610fe181610ebb565b610fea84610ecd565b81016020851015610ff9578190505b61100d61100585610ecd565b830182610fad565b50505b505050565b5f82821c905092915050565b5f6110305f1984600802611015565b1980831691505092915050565b5f6110488383611021565b9150826002028217905092915050565b61106182610c75565b67ffffffffffffffff81111561107a5761107961099b565b5b6110848254610e8b565b61108f828285610fcf565b5f60209050601f8311600181146110c0575f84156110ae578287015190505b6110b8858261103d565b86555061111f565b601f1984166110ce86610ebb565b5f5b828110156110f5578489015182556001820191506020850194506020810190506110d0565b86831015611112578489015161110e601f891682611021565b8355505b6001600288020188555050505b505050505050565b7f4e487b71000000000000000000000000000000000000000000000000000000005f52603260045260245ffd5b7f596f752063616e206f6e6c7920776974686472617720796f75206f776e2045745f8201527f6865720000000000000000000000000000000000000000000000000000000000602082015250565b5f6111ae602383610c7f565b91506111b982611154565b604082019050919050565b5f6020820190508181035f8301526111db816111a2565b9050919050565b7f596f75206172656e2774207065726d697474656420746f2077697468647261775f8201527f20617420746869732074696d6500000000000000000000000000000000000000602082015250565b5f61123c602d83610c7f565b9150611247826111e2565b604082019050919050565b5f6020820190508181035f83015261126981611230565b9050919050565b7f4e487b71000000000000000000000000000000000000000000000000000000005f52601160045260245ffd5b5f6112a782610abf565b91506112b283610abf565b92508282019050808211156112ca576112c9611270565b5b92915050565b6112d981610d51565b82525050565b5f6060820190506112f25f8301866112d0565b6112ff6020830185610c13565b61130c6040830184610c13565b94935050505056fea26469706673582212202031223b8df5fda886272e6747b02422f4831d4f6f5237ea4db5a10b551206c564736f6c634300081a0033",
					"opcodes": "PUSH1 0x80 PUSH1 0x40 MSTORE CALLVALUE DUP1 ISZERO PUSH1 0xE JUMPI PUSH0 DUP1 REVERT JUMPDEST POP CALLER PUSH0 DUP1 PUSH2 0x100 EXP DUP2 SLOAD DUP2 PUSH20 0xFFFFFFFFFFFFFFFFFFFFFFFFFFFFFFFFFFFFFFFF MUL NOT AND SWAP1 DUP4 PUSH20 0xFFFFFFFFFFFFFFFFFFFFFFFFFFFFFFFFFFFFFFFF AND MUL OR SWAP1 SSTORE POP PUSH2 0x134A DUP1 PUSH2 0x5B PUSH0 CODECOPY PUSH0 RETURN INVALID PUSH1 0x80 PUSH1 0x40 MSTORE PUSH1 0x4 CALLDATASIZE LT PUSH2 0x54 JUMPI PUSH0 CALLDATALOAD PUSH1 0xE0 SHR DUP1 PUSH4 0x31D575C5 EQ PUSH2 0x58 JUMPI DUP1 PUSH4 0x51CFF8D9 EQ PUSH2 0x80 JUMPI DUP1 PUSH4 0x722713F7 EQ PUSH2 0x9C JUMPI DUP1 PUSH4 0x7285FD3A EQ PUSH2 0xC6 JUMPI DUP1 PUSH4 0xA25DB8CE EQ PUSH2 0x107 JUMPI DUP1 PUSH4 0xF340FA01 EQ PUSH2 0x143 JUMPI JUMPDEST PUSH0 DUP1 REVERT JUMPDEST CALLVALUE DUP1 ISZERO PUSH2 0x63 JUMPI PUSH0 DUP1 REVERT JUMPDEST POP PUSH2 0x7E PUSH1 0x4 DUP1 CALLDATASIZE SUB DUP2 ADD SWAP1 PUSH2 0x79 SWAP2 SWAP1 PUSH2 0xB27 JUMP JUMPDEST PUSH2 0x15F JUMP JUMPDEST STOP JUMPDEST PUSH2 0x9A PUSH1 0x4 DUP1 CALLDATASIZE SUB DUP2 ADD SWAP1 PUSH2 0x95 SWAP2 SWAP1 PUSH2 0xBE8 JUMP JUMPDEST PUSH2 0x306 JUMP JUMPDEST STOP JUMPDEST CALLVALUE DUP1 ISZERO PUSH2 0xA7 JUMPI PUSH0 DUP1 REVERT JUMPDEST POP PUSH2 0xB0 PUSH2 0x4E3 JUMP JUMPDEST PUSH1 0x40 MLOAD PUSH2 0xBD SWAP2 SWAP1 PUSH2 0xC22 JUMP JUMPDEST PUSH1 0x40 MLOAD DUP1 SWAP2 SUB SWAP1 RETURN JUMPDEST CALLVALUE DUP1 ISZERO PUSH2 0xD1 JUMPI PUSH0 DUP1 REVERT JUMPDEST POP PUSH2 0xEC PUSH1 0x4 DUP1 CALLDATASIZE SUB DUP2 ADD SWAP1 PUSH2 0xE7 SWAP2 SWAP1 PUSH2 0xC3B JUMP JUMPDEST PUSH2 0x4EA JUMP JUMPDEST PUSH1 0x40 MLOAD PUSH2 0xFE SWAP7 SWAP6 SWAP5 SWAP4 SWAP3 SWAP2 SWAP1 PUSH2 0xCE4 JUMP JUMPDEST PUSH1 0x40 MLOAD DUP1 SWAP2 SUB SWAP1 RETURN JUMPDEST CALLVALUE DUP1 ISZERO PUSH2 0x112 JUMPI PUSH0 DUP1 REVERT JUMPDEST POP PUSH2 0x12D PUSH1 0x4 DUP1 CALLDATASIZE SUB DUP2 ADD SWAP1 PUSH2 0x128 SWAP2 SWAP1 PUSH2 0xD8C JUMP JUMPDEST PUSH2 0x668 JUMP JUMPDEST PUSH1 0x40 MLOAD PUSH2 0x13A SWAP2 SWAP1 PUSH2 0xDB7 JUMP JUMPDEST PUSH1 0x40 MLOAD DUP1 SWAP2 SUB SWAP1 RETURN JUMPDEST PUSH2 0x15D PUSH1 0x4 DUP1 CALLDATASIZE SUB DUP2 ADD SWAP1 PUSH2 0x158 SWAP2 SWAP1 PUSH2 0xD8C JUMP JUMPDEST PUSH2 0x753 JUMP JUMPDEST STOP JUMPDEST PUSH0 DUP1 SLOAD SWAP1 PUSH2 0x100 EXP SWAP1 DIV PUSH20 0xFFFFFFFFFFFFFFFFFFFFFFFFFFFFFFFFFFFFFFFF AND PUSH20 0xFFFFFFFFFFFFFFFFFFFFFFFFFFFFFFFFFFFFFFFF AND CALLER PUSH20 0xFFFFFFFFFFFFFFFFFFFFFFFFFFFFFFFFFFFFFFFF AND EQ PUSH2 0x1EC JUMPI PUSH1 0x40 MLOAD PUSH32 0x8C379A000000000000000000000000000000000000000000000000000000000 DUP2 MSTORE PUSH1 0x4 ADD PUSH2 0x1E3 SWAP1 PUSH2 0xE40 JUMP JUMPDEST PUSH1 0x40 MLOAD DUP1 SWAP2 SUB SWAP1 REVERT JUMPDEST PUSH1 0x1 PUSH1 0x40 MLOAD DUP1 PUSH1 0xC0 ADD PUSH1 0x40 MSTORE DUP1 DUP9 PUSH20 0xFFFFFFFFFFFFFFFFFFFFFFFFFFFFFFFFFFFFFFFF AND DUP2 MSTORE PUSH1 0x20 ADD DUP8 DUP2 MSTORE PUSH1 0x20 ADD DUP7 DUP2 MSTORE PUSH1 0x20 ADD DUP6 DUP2 MSTORE PUSH1 0x20 ADD DUP5 DUP2 MSTORE PUSH1 0x20 ADD DUP4 ISZERO ISZERO DUP2 MSTORE POP SWAP1 DUP1 PUSH1 0x1 DUP2 SLOAD ADD DUP1 DUP3 SSTORE DUP1 SWAP2 POP POP PUSH1 0x1 SWAP1 SUB SWAP1 PUSH0 MSTORE PUSH1 0x20 PUSH0 KECCAK256 SWAP1 PUSH1 0x6 MUL ADD PUSH0 SWAP1 SWAP2 SWAP1 SWAP2 SWAP1 SWAP2 POP PUSH0 DUP3 ADD MLOAD DUP2 PUSH0 ADD PUSH0 PUSH2 0x100 EXP DUP2 SLOAD DUP2 PUSH20 0xFFFFFFFFFFFFFFFFFFFFFFFFFFFFFFFFFFFFFFFF MUL NOT AND SWAP1 DUP4 PUSH20 0xFFFFFFFFFFFFFFFFFFFFFFFFFFFFFFFFFFFFFFFF AND MUL OR SWAP1 SSTORE POP PUSH1 0x20 DUP3 ADD MLOAD DUP2 PUSH1 0x1 ADD SWAP1 DUP2 PUSH2 0x2B2 SWAP2 SWAP1 PUSH2 0x1058 JUMP JUMPDEST POP PUSH1 0x40 DUP3 ADD MLOAD DUP2 PUSH1 0x2 ADD SWAP1 DUP2 PUSH2 0x2C8 SWAP2 SWAP1 PUSH2 0x1058 JUMP JUMPDEST POP PUSH1 0x60 DUP3 ADD MLOAD DUP2 PUSH1 0x3 ADD SSTORE PUSH1 0x80 DUP3 ADD MLOAD DUP2 PUSH1 0x4 ADD SSTORE PUSH1 0xA0 DUP3 ADD MLOAD DUP2 PUSH1 0x5 ADD PUSH0 PUSH2 0x100 EXP DUP2 SLOAD DUP2 PUSH1 0xFF MUL NOT AND SWAP1 DUP4 ISZERO ISZERO MUL OR SWAP1 SSTORE POP POP POP POP POP POP POP POP POP JUMP JUMPDEST PUSH0 PUSH2 0x310 DUP3 PUSH2 0x75F JUMP JUMPDEST SWAP1 POP PUSH1 0x1 DUP2 DUP2 SLOAD DUP2 LT PUSH2 0x326 JUMPI PUSH2 0x325 PUSH2 0x1127 JUMP JUMPDEST JUMPDEST SWAP1 PUSH0 MSTORE PUSH1 0x20 PUSH0 KECCAK256 SWAP1 PUSH1 0x6 MUL ADD PUSH0 ADD PUSH0 SWAP1 SLOAD SWAP1 PUSH2 0x100 EXP SWAP1 DIV PUSH20 0xFFFFFFFFFFFFFFFFFFFFFFFFFFFFFFFFFFFFFFFF AND PUSH20 0xFFFFFFFFFFFFFFFFFFFFFFFFFFFFFFFFFFFFFFFF AND CALLER PUSH20 0xFFFFFFFFFFFFFFFFFFFFFFFFFFFFFFFFFFFFFFFF AND EQ PUSH2 0x3C1 JUMPI PUSH1 0x40 MLOAD PUSH32 0x8C379A000000000000000000000000000000000000000000000000000000000 DUP2 MSTORE PUSH1 0x4 ADD PUSH2 0x3B8 SWAP1 PUSH2 0x11C4 JUMP JUMPDEST PUSH1 0x40 MLOAD DUP1 SWAP2 SUB SWAP1 REVERT JUMPDEST PUSH1 0x1 ISZERO ISZERO PUSH1 0x1 DUP3 DUP2 SLOAD DUP2 LT PUSH2 0x3D9 JUMPI PUSH2 0x3D8 PUSH2 0x1127 JUMP JUMPDEST JUMPDEST SWAP1 PUSH0 MSTORE PUSH1 0x20 PUSH0 KECCAK256 SWAP1 PUSH1 0x6 MUL ADD PUSH1 0x5 ADD PUSH0 SWAP1 SLOAD SWAP1 PUSH2 0x100 EXP SWAP1 DIV PUSH1 0xFF AND ISZERO ISZERO EQ PUSH2 0x437 JUMPI PUSH1 0x40 MLOAD PUSH32 0x8C379A000000000000000000000000000000000000000000000000000000000 DUP2 MSTORE PUSH1 0x4 ADD PUSH2 0x42E SWAP1 PUSH2 0x1252 JUMP JUMPDEST PUSH1 0x40 MLOAD DUP1 SWAP2 SUB SWAP1 REVERT JUMPDEST PUSH1 0x1 DUP2 DUP2 SLOAD DUP2 LT PUSH2 0x44B JUMPI PUSH2 0x44A PUSH2 0x1127 JUMP JUMPDEST JUMPDEST SWAP1 PUSH0 MSTORE PUSH1 0x20 PUSH0 KECCAK256 SWAP1 PUSH1 0x6 MUL ADD PUSH0 ADD PUSH0 SWAP1 SLOAD SWAP1 PUSH2 0x100 EXP SWAP1 DIV PUSH20 0xFFFFFFFFFFFFFFFFFFFFFFFFFFFFFFFFFFFFFFFF AND PUSH20 0xFFFFFFFFFFFFFFFFFFFFFFFFFFFFFFFFFFFFFFFF AND PUSH2 0x8FC PUSH1 0x1 DUP4 DUP2 SLOAD DUP2 LT PUSH2 0x4A6 JUMPI PUSH2 0x4A5 PUSH2 0x1127 JUMP JUMPDEST JUMPDEST SWAP1 PUSH0 MSTORE PUSH1 0x20 PUSH0 KECCAK256 SWAP1 PUSH1 0x6 MUL ADD PUSH1 0x4 ADD SLOAD SWAP1 DUP2 ISZERO MUL SWAP1 PUSH1 0x40 MLOAD PUSH0 PUSH1 0x40 MLOAD DUP1 DUP4 SUB DUP2 DUP6 DUP9 DUP9 CALL SWAP4 POP POP POP POP ISZERO DUP1 ISZERO PUSH2 0x4DE JUMPI RETURNDATASIZE PUSH0 DUP1 RETURNDATACOPY RETURNDATASIZE PUSH0 REVERT JUMPDEST POP POP POP JUMP JUMPDEST PUSH0 SELFBALANCE SWAP1 POP SWAP1 JUMP JUMPDEST PUSH1 0x1 DUP2 DUP2 SLOAD DUP2 LT PUSH2 0x4F9 JUMPI PUSH0 DUP1 REVERT JUMPDEST SWAP1 PUSH0 MSTORE PUSH1 0x20 PUSH0 KECCAK256 SWAP1 PUSH1 0x6 MUL ADD PUSH0 SWAP2 POP SWAP1 POP DUP1 PUSH0 ADD PUSH0 SWAP1 SLOAD SWAP1 PUSH2 0x100 EXP SWAP1 DIV PUSH20 0xFFFFFFFFFFFFFFFFFFFFFFFFFFFFFFFFFFFFFFFF AND SWAP1 DUP1 PUSH1 0x1 ADD DUP1 SLOAD PUSH2 0x53D SWAP1 PUSH2 0xE8B JUMP JUMPDEST DUP1 PUSH1 0x1F ADD PUSH1 0x20 DUP1 SWAP2 DIV MUL PUSH1 0x20 ADD PUSH1 0x40 MLOAD SWAP1 DUP2 ADD PUSH1 0x40 MSTORE DUP1 SWAP3 SWAP2 SWAP1 DUP2 DUP2 MSTORE PUSH1 0x20 ADD DUP3 DUP1 SLOAD PUSH2 0x569 SWAP1 PUSH2 0xE8B JUMP JUMPDEST DUP1 ISZERO PUSH2 0x5B4 JUMPI DUP1 PUSH1 0x1F LT PUSH2 0x58B JUMPI PUSH2 0x100 DUP1 DUP4 SLOAD DIV MUL DUP4 MSTORE SWAP2 PUSH1 0x20 ADD SWAP2 PUSH2 0x5B4 JUMP JUMPDEST DUP3 ADD SWAP2 SWAP1 PUSH0 MSTORE PUSH1 0x20 PUSH0 KECCAK256 SWAP1 JUMPDEST DUP2 SLOAD DUP2 MSTORE SWAP1 PUSH1 0x1 ADD SWAP1 PUSH1 0x20 ADD DUP1 DUP4 GT PUSH2 0x597 JUMPI DUP3 SWAP1 SUB PUSH1 0x1F AND DUP3 ADD SWAP2 JUMPDEST POP POP POP POP POP SWAP1 DUP1 PUSH1 0x2 ADD DUP1 SLOAD PUSH2 0x5C9 SWAP1 PUSH2 0xE8B JUMP JUMPDEST DUP1 PUSH1 0x1F ADD PUSH1 0x20 DUP1 SWAP2 DIV MUL PUSH1 0x20 ADD PUSH1 0x40 MLOAD SWAP1 DUP2 ADD PUSH1 0x40 MSTORE DUP1 SWAP3 SWAP2 SWAP1 DUP2 DUP2 MSTORE PUSH1 0x20 ADD DUP3 DUP1 SLOAD PUSH2 0x5F5 SWAP1 PUSH2 0xE8B JUMP JUMPDEST DUP1 ISZERO PUSH2 0x640 JUMPI DUP1 PUSH1 0x1F LT PUSH2 0x617 JUMPI PUSH2 0x100 DUP1 DUP4 SLOAD DIV MUL DUP4 MSTORE SWAP2 PUSH1 0x20 ADD SWAP2 PUSH2 0x640 JUMP JUMPDEST DUP3 ADD SWAP2 SWAP1 PUSH0 MSTORE PUSH1 0x20 PUSH0 KECCAK256 SWAP1 JUMPDEST DUP2 SLOAD DUP2 MSTORE SWAP1 PUSH1 0x1 ADD SWAP1 PUSH1 0x20 ADD DUP1 DUP4 GT PUSH2 0x623 JUMPI DUP3 SWAP1 SUB PUSH1 0x1F AND DUP3 ADD SWAP2 JUMPDEST POP POP POP POP POP SWAP1 DUP1 PUSH1 0x3 ADD SLOAD SWAP1 DUP1 PUSH1 0x4 ADD SLOAD SWAP1 DUP1 PUSH1 0x5 ADD PUSH0 SWAP1 SLOAD SWAP1 PUSH2 0x100 EXP SWAP1 DIV PUSH1 0xFF AND SWAP1 POP DUP7 JUMP JUMPDEST PUSH0 DUP1 PUSH2 0x673 DUP4 PUSH2 0x75F JUMP JUMPDEST SWAP1 POP PUSH1 0x1 DUP2 DUP2 SLOAD DUP2 LT PUSH2 0x689 JUMPI PUSH2 0x688 PUSH2 0x1127 JUMP JUMPDEST JUMPDEST SWAP1 PUSH0 MSTORE PUSH1 0x20 PUSH0 KECCAK256 SWAP1 PUSH1 0x6 MUL ADD PUSH1 0x3 ADD SLOAD TIMESTAMP GT PUSH2 0x6DA JUMPI PUSH1 0x40 MLOAD PUSH32 0x8C379A000000000000000000000000000000000000000000000000000000000 DUP2 MSTORE PUSH1 0x4 ADD PUSH2 0x6D1 SWAP1 PUSH2 0x1252 JUMP JUMPDEST PUSH1 0x40 MLOAD DUP1 SWAP2 SUB SWAP1 REVERT JUMPDEST PUSH1 0x1 DUP2 DUP2 SLOAD DUP2 LT PUSH2 0x6EE JUMPI PUSH2 0x6ED PUSH2 0x1127 JUMP JUMPDEST JUMPDEST SWAP1 PUSH0 MSTORE PUSH1 0x20 PUSH0 KECCAK256 SWAP1 PUSH1 0x6 MUL ADD PUSH1 0x3 ADD SLOAD TIMESTAMP GT ISZERO PUSH2 0x749 JUMPI PUSH1 0x1 DUP1 DUP3 DUP2 SLOAD DUP2 LT PUSH2 0x71A JUMPI PUSH2 0x719 PUSH2 0x1127 JUMP JUMPDEST JUMPDEST SWAP1 PUSH0 MSTORE PUSH1 0x20 PUSH0 KECCAK256 SWAP1 PUSH1 0x6 MUL ADD PUSH1 0x5 ADD PUSH0 PUSH2 0x100 EXP DUP2 SLOAD DUP2 PUSH1 0xFF MUL NOT AND SWAP1 DUP4 ISZERO ISZERO MUL OR SWAP1 SSTORE POP PUSH1 0x1 SWAP2 POP POP PUSH2 0x74E JUMP JUMPDEST PUSH0 SWAP2 POP POP JUMPDEST SWAP2 SWAP1 POP JUMP JUMPDEST PUSH2 0x75C DUP2 PUSH2 0x808 JUMP JUMPDEST POP JUMP JUMPDEST PUSH0 DUP1 PUSH0 SWAP1 POP JUMPDEST PUSH1 0x1 DUP1 SLOAD SWAP1 POP DUP2 LT ISZERO PUSH2 0x7FC JUMPI DUP3 PUSH20 0xFFFFFFFFFFFFFFFFFFFFFFFFFFFFFFFFFFFFFFFF AND PUSH1 0x1 DUP3 DUP2 SLOAD DUP2 LT PUSH2 0x79D JUMPI PUSH2 0x79C PUSH2 0x1127 JUMP JUMPDEST JUMPDEST SWAP1 PUSH0 MSTORE PUSH1 0x20 PUSH0 KECCAK256 SWAP1 PUSH1 0x6 MUL ADD PUSH0 ADD PUSH0 SWAP1 SLOAD SWAP1 PUSH2 0x100 EXP SWAP1 DIV PUSH20 0xFFFFFFFFFFFFFFFFFFFFFFFFFFFFFFFFFFFFFFFF AND PUSH20 0xFFFFFFFFFFFFFFFFFFFFFFFFFFFFFFFFFFFFFFFF AND SUB PUSH2 0x7EF JUMPI DUP1 SWAP2 POP POP PUSH2 0x803 JUMP JUMPDEST DUP1 DUP1 PUSH1 0x1 ADD SWAP2 POP POP PUSH2 0x765 JUMP JUMPDEST POP PUSH2 0x194 SWAP1 POP JUMPDEST SWAP2 SWAP1 POP JUMP JUMPDEST PUSH0 JUMPDEST PUSH1 0x1 DUP1 SLOAD SWAP1 POP DUP2 LT ISZERO PUSH2 0x914 JUMPI DUP2 PUSH20 0xFFFFFFFFFFFFFFFFFFFFFFFFFFFFFFFFFFFFFFFF AND PUSH1 0x1 DUP3 DUP2 SLOAD DUP2 LT PUSH2 0x842 JUMPI PUSH2 0x841 PUSH2 0x1127 JUMP JUMPDEST JUMPDEST SWAP1 PUSH0 MSTORE PUSH1 0x20 PUSH0 KECCAK256 SWAP1 PUSH1 0x6 MUL ADD PUSH0 ADD PUSH0 SWAP1 SLOAD SWAP1 PUSH2 0x100 EXP SWAP1 DIV PUSH20 0xFFFFFFFFFFFFFFFFFFFFFFFFFFFFFFFFFFFFFFFF AND PUSH20 0xFFFFFFFFFFFFFFFFFFFFFFFFFFFFFFFFFFFFFFFF AND SUB PUSH2 0x907 JUMPI CALLVALUE PUSH1 0x1 DUP3 DUP2 SLOAD DUP2 LT PUSH2 0x8A0 JUMPI PUSH2 0x89F PUSH2 0x1127 JUMP JUMPDEST JUMPDEST SWAP1 PUSH0 MSTORE PUSH1 0x20 PUSH0 KECCAK256 SWAP1 PUSH1 0x6 MUL ADD PUSH1 0x4 ADD PUSH0 DUP3 DUP3 SLOAD PUSH2 0x8BD SWAP2 SWAP1 PUSH2 0x129D JUMP JUMPDEST SWAP3 POP POP DUP2 SWAP1 SSTORE POP PUSH32 0x8E5B73E270CCFDFEA317EBD9D7945AF60A4350CE9106CFE4284215C5CBA7DAA6 DUP3 CALLVALUE PUSH2 0x8EF PUSH2 0x4E3 JUMP JUMPDEST PUSH1 0x40 MLOAD PUSH2 0x8FE SWAP4 SWAP3 SWAP2 SWAP1 PUSH2 0x12DF JUMP JUMPDEST PUSH1 0x40 MLOAD DUP1 SWAP2 SUB SWAP1 LOG1 JUMPDEST DUP1 DUP1 PUSH1 0x1 ADD SWAP2 POP POP PUSH2 0x80A JUMP JUMPDEST POP POP JUMP JUMPDEST PUSH0 PUSH1 0x40 MLOAD SWAP1 POP SWAP1 JUMP JUMPDEST PUSH0 DUP1 REVERT JUMPDEST PUSH0 DUP1 REVERT JUMPDEST PUSH0 PUSH20 0xFFFFFFFFFFFFFFFFFFFFFFFFFFFFFFFFFFFFFFFF DUP3 AND SWAP1 POP SWAP2 SWAP1 POP JUMP JUMPDEST PUSH0 PUSH2 0x952 DUP3 PUSH2 0x929 JUMP JUMPDEST SWAP1 POP SWAP2 SWAP1 POP JUMP JUMPDEST PUSH2 0x962 DUP2 PUSH2 0x948 JUMP JUMPDEST DUP2 EQ PUSH2 0x96C JUMPI PUSH0 DUP1 REVERT JUMPDEST POP JUMP JUMPDEST PUSH0 DUP2 CALLDATALOAD SWAP1 POP PUSH2 0x97D DUP2 PUSH2 0x959 JUMP JUMPDEST SWAP3 SWAP2 POP POP JUMP JUMPDEST PUSH0 DUP1 REVERT JUMPDEST PUSH0 DUP1 REVERT JUMPDEST PUSH0 PUSH1 0x1F NOT PUSH1 0x1F DUP4 ADD AND SWAP1 POP SWAP2 SWAP1 POP JUMP JUMPDEST PUSH32 0x4E487B7100000000000000000000000000000000000000000000000000000000 PUSH0 MSTORE PUSH1 0x41 PUSH1 0x4 MSTORE PUSH1 0x24 PUSH0 REVERT JUMPDEST PUSH2 0x9D1 DUP3 PUSH2 0x98B JUMP JUMPDEST DUP2 ADD DUP2 DUP2 LT PUSH8 0xFFFFFFFFFFFFFFFF DUP3 GT OR ISZERO PUSH2 0x9F0 JUMPI PUSH2 0x9EF PUSH2 0x99B JUMP JUMPDEST JUMPDEST DUP1 PUSH1 0x40 MSTORE POP POP POP JUMP JUMPDEST PUSH0 PUSH2 0xA02 PUSH2 0x918 JUMP JUMPDEST SWAP1 POP PUSH2 0xA0E DUP3 DUP3 PUSH2 0x9C8 JUMP JUMPDEST SWAP2 SWAP1 POP JUMP JUMPDEST PUSH0 PUSH8 0xFFFFFFFFFFFFFFFF DUP3 GT ISZERO PUSH2 0xA2D JUMPI PUSH2 0xA2C PUSH2 0x99B JUMP JUMPDEST JUMPDEST PUSH2 0xA36 DUP3 PUSH2 0x98B JUMP JUMPDEST SWAP1 POP PUSH1 0x20 DUP2 ADD SWAP1 POP SWAP2 SWAP1 POP JUMP JUMPDEST DUP3 DUP2 DUP4 CALLDATACOPY PUSH0 DUP4 DUP4 ADD MSTORE POP POP POP JUMP JUMPDEST PUSH0 PUSH2 0xA63 PUSH2 0xA5E DUP5 PUSH2 0xA13 JUMP JUMPDEST PUSH2 0x9F9 JUMP JUMPDEST SWAP1 POP DUP3 DUP2 MSTORE PUSH1 0x20 DUP2 ADD DUP5 DUP5 DUP5 ADD GT ISZERO PUSH2 0xA7F JUMPI PUSH2 0xA7E PUSH2 0x987 JUMP JUMPDEST JUMPDEST PUSH2 0xA8A DUP5 DUP3 DUP6 PUSH2 0xA43 JUMP JUMPDEST POP SWAP4 SWAP3 POP POP POP JUMP JUMPDEST PUSH0 DUP3 PUSH1 0x1F DUP4 ADD SLT PUSH2 0xAA6 JUMPI PUSH2 0xAA5 PUSH2 0x983 JUMP JUMPDEST JUMPDEST DUP2 CALLDATALOAD PUSH2 0xAB6 DUP5 DUP3 PUSH1 0x20 DUP7 ADD PUSH2 0xA51 JUMP JUMPDEST SWAP2 POP POP SWAP3 SWAP2 POP POP JUMP JUMPDEST PUSH0 DUP2 SWAP1 POP SWAP2 SWAP1 POP JUMP JUMPDEST PUSH2 0xAD1 DUP2 PUSH2 0xABF JUMP JUMPDEST DUP2 EQ PUSH2 0xADB JUMPI PUSH0 DUP1 REVERT JUMPDEST POP JUMP JUMPDEST PUSH0 DUP2 CALLDATALOAD SWAP1 POP PUSH2 0xAEC DUP2 PUSH2 0xAC8 JUMP JUMPDEST SWAP3 SWAP2 POP POP JUMP JUMPDEST PUSH0 DUP2 ISZERO ISZERO SWAP1 POP SWAP2 SWAP1 POP JUMP JUMPDEST PUSH2 0xB06 DUP2 PUSH2 0xAF2 JUMP JUMPDEST DUP2 EQ PUSH2 0xB10 JUMPI PUSH0 DUP1 REVERT JUMPDEST POP JUMP JUMPDEST PUSH0 DUP2 CALLDATALOAD SWAP1 POP PUSH2 0xB21 DUP2 PUSH2 0xAFD JUMP JUMPDEST SWAP3 SWAP2 POP POP JUMP JUMPDEST PUSH0 DUP1 PUSH0 DUP1 PUSH0 DUP1 PUSH1 0xC0 DUP8 DUP10 SUB SLT ISZERO PUSH2 0xB41 JUMPI PUSH2 0xB40 PUSH2 0x921 JUMP JUMPDEST JUMPDEST PUSH0 PUSH2 0xB4E DUP10 DUP3 DUP11 ADD PUSH2 0x96F JUMP JUMPDEST SWAP7 POP POP PUSH1 0x20 DUP8 ADD CALLDATALOAD PUSH8 0xFFFFFFFFFFFFFFFF DUP2 GT ISZERO PUSH2 0xB6F JUMPI PUSH2 0xB6E PUSH2 0x925 JUMP JUMPDEST JUMPDEST PUSH2 0xB7B DUP10 DUP3 DUP11 ADD PUSH2 0xA92 JUMP JUMPDEST SWAP6 POP POP PUSH1 0x40 DUP8 ADD CALLDATALOAD PUSH8 0xFFFFFFFFFFFFFFFF DUP2 GT ISZERO PUSH2 0xB9C JUMPI PUSH2 0xB9B PUSH2 0x925 JUMP JUMPDEST JUMPDEST PUSH2 0xBA8 DUP10 DUP3 DUP11 ADD PUSH2 0xA92 JUMP JUMPDEST SWAP5 POP POP PUSH1 0x60 PUSH2 0xBB9 DUP10 DUP3 DUP11 ADD PUSH2 0xADE JUMP JUMPDEST SWAP4 POP POP PUSH1 0x80 PUSH2 0xBCA DUP10 DUP3 DUP11 ADD PUSH2 0xADE JUMP JUMPDEST SWAP3 POP POP PUSH1 0xA0 PUSH2 0xBDB DUP10 DUP3 DUP11 ADD PUSH2 0xB13 JUMP JUMPDEST SWAP2 POP POP SWAP3 SWAP6 POP SWAP3 SWAP6 POP SWAP3 SWAP6 JUMP JUMPDEST PUSH0 PUSH1 0x20 DUP3 DUP5 SUB SLT ISZERO PUSH2 0xBFD JUMPI PUSH2 0xBFC PUSH2 0x921 JUMP JUMPDEST JUMPDEST PUSH0 PUSH2 0xC0A DUP5 DUP3 DUP6 ADD PUSH2 0x96F JUMP JUMPDEST SWAP2 POP POP SWAP3 SWAP2 POP POP JUMP JUMPDEST PUSH2 0xC1C DUP2 PUSH2 0xABF JUMP JUMPDEST DUP3 MSTORE POP POP JUMP JUMPDEST PUSH0 PUSH1 0x20 DUP3 ADD SWAP1 POP PUSH2 0xC35 PUSH0 DUP4 ADD DUP5 PUSH2 0xC13 JUMP JUMPDEST SWAP3 SWAP2 POP POP JUMP JUMPDEST PUSH0 PUSH1 0x20 DUP3 DUP5 SUB SLT ISZERO PUSH2 0xC50 JUMPI PUSH2 0xC4F PUSH2 0x921 JUMP JUMPDEST JUMPDEST PUSH0 PUSH2 0xC5D DUP5 DUP3 DUP6 ADD PUSH2 0xADE JUMP JUMPDEST SWAP2 POP POP SWAP3 SWAP2 POP POP JUMP JUMPDEST PUSH2 0xC6F DUP2 PUSH2 0x948 JUMP JUMPDEST DUP3 MSTORE POP POP JUMP JUMPDEST PUSH0 DUP2 MLOAD SWAP1 POP SWAP2 SWAP1 POP JUMP JUMPDEST PUSH0 DUP3 DUP3 MSTORE PUSH1 0x20 DUP3 ADD SWAP1 POP SWAP3 SWAP2 POP POP JUMP JUMPDEST DUP3 DUP2 DUP4 MCOPY PUSH0 DUP4 DUP4 ADD MSTORE POP POP POP JUMP JUMPDEST PUSH0 PUSH2 0xCA7 DUP3 PUSH2 0xC75 JUMP JUMPDEST PUSH2 0xCB1 DUP2 DUP6 PUSH2 0xC7F JUMP JUMPDEST SWAP4 POP PUSH2 0xCC1 DUP2 DUP6 PUSH1 0x20 DUP7 ADD PUSH2 0xC8F JUMP JUMPDEST PUSH2 0xCCA DUP2 PUSH2 0x98B JUMP JUMPDEST DUP5 ADD SWAP2 POP POP SWAP3 SWAP2 POP POP JUMP JUMPDEST PUSH2 0xCDE DUP2 PUSH2 0xAF2 JUMP JUMPDEST DUP3 MSTORE POP POP JUMP JUMPDEST PUSH0 PUSH1 0xC0 DUP3 ADD SWAP1 POP PUSH2 0xCF7 PUSH0 DUP4 ADD DUP10 PUSH2 0xC66 JUMP JUMPDEST DUP2 DUP2 SUB PUSH1 0x20 DUP4 ADD MSTORE PUSH2 0xD09 DUP2 DUP9 PUSH2 0xC9D JUMP JUMPDEST SWAP1 POP DUP2 DUP2 SUB PUSH1 0x40 DUP4 ADD MSTORE PUSH2 0xD1D DUP2 DUP8 PUSH2 0xC9D JUMP JUMPDEST SWAP1 POP PUSH2 0xD2C PUSH1 0x60 DUP4 ADD DUP7 PUSH2 0xC13 JUMP JUMPDEST PUSH2 0xD39 PUSH1 0x80 DUP4 ADD DUP6 PUSH2 0xC13 JUMP JUMPDEST PUSH2 0xD46 PUSH1 0xA0 DUP4 ADD DUP5 PUSH2 0xCD5 JUMP JUMPDEST SWAP8 SWAP7 POP POP POP POP POP POP POP JUMP JUMPDEST PUSH0 PUSH2 0xD5B DUP3 PUSH2 0x929 JUMP JUMPDEST SWAP1 POP SWAP2 SWAP1 POP JUMP JUMPDEST PUSH2 0xD6B DUP2 PUSH2 0xD51 JUMP JUMPDEST DUP2 EQ PUSH2 0xD75 JUMPI PUSH0 DUP1 REVERT JUMPDEST POP JUMP JUMPDEST PUSH0 DUP2 CALLDATALOAD SWAP1 POP PUSH2 0xD86 DUP2 PUSH2 0xD62 JUMP JUMPDEST SWAP3 SWAP2 POP POP JUMP JUMPDEST PUSH0 PUSH1 0x20 DUP3 DUP5 SUB SLT ISZERO PUSH2 0xDA1 JUMPI PUSH2 0xDA0 PUSH2 0x921 JUMP JUMPDEST JUMPDEST PUSH0 PUSH2 0xDAE DUP5 DUP3 DUP6 ADD PUSH2 0xD78 JUMP JUMPDEST SWAP2 POP POP SWAP3 SWAP2 POP POP JUMP JUMPDEST PUSH0 PUSH1 0x20 DUP3 ADD SWAP1 POP PUSH2 0xDCA PUSH0 DUP4 ADD DUP5 PUSH2 0xCD5 JUMP JUMPDEST SWAP3 SWAP2 POP POP JUMP JUMPDEST PUSH32 0x4F6E6C7920746865206F776E65722063616E20616464206B69647320746F2074 PUSH0 DUP3 ADD MSTORE PUSH32 0x68697320636F6E74726163740000000000000000000000000000000000000000 PUSH1 0x20 DUP3 ADD MSTORE POP JUMP JUMPDEST PUSH0 PUSH2 0xE2A PUSH1 0x2C DUP4 PUSH2 0xC7F JUMP JUMPDEST SWAP2 POP PUSH2 0xE35 DUP3 PUSH2 0xDD0 JUMP JUMPDEST PUSH1 0x40 DUP3 ADD SWAP1 POP SWAP2 SWAP1 POP JUMP JUMPDEST PUSH0 PUSH1 0x20 DUP3 ADD SWAP1 POP DUP2 DUP2 SUB PUSH0 DUP4 ADD MSTORE PUSH2 0xE57 DUP2 PUSH2 0xE1E JUMP JUMPDEST SWAP1 POP SWAP2 SWAP1 POP JUMP JUMPDEST PUSH32 0x4E487B7100000000000000000000000000000000000000000000000000000000 PUSH0 MSTORE PUSH1 0x22 PUSH1 0x4 MSTORE PUSH1 0x24 PUSH0 REVERT JUMPDEST PUSH0 PUSH1 0x2 DUP3 DIV SWAP1 POP PUSH1 0x1 DUP3 AND DUP1 PUSH2 0xEA2 JUMPI PUSH1 0x7F DUP3 AND SWAP2 POP JUMPDEST PUSH1 0x20 DUP3 LT DUP2 SUB PUSH2 0xEB5 JUMPI PUSH2 0xEB4 PUSH2 0xE5E JUMP JUMPDEST JUMPDEST POP SWAP2 SWAP1 POP JUMP JUMPDEST PUSH0 DUP2 SWAP1 POP DUP2 PUSH0 MSTORE PUSH1 0x20 PUSH0 KECCAK256 SWAP1 POP SWAP2 SWAP1 POP JUMP JUMPDEST PUSH0 PUSH1 0x20 PUSH1 0x1F DUP4 ADD DIV SWAP1 POP SWAP2 SWAP1 POP JUMP JUMPDEST PUSH0 DUP3 DUP3 SHL SWAP1 POP SWAP3 SWAP2 POP POP JUMP JUMPDEST PUSH0 PUSH1 0x8 DUP4 MUL PUSH2 0xF17 PUSH32 0xFFFFFFFFFFFFFFFFFFFFFFFFFFFFFFFFFFFFFFFFFFFFFFFFFFFFFFFFFFFFFFFF DUP3 PUSH2 0xEDC JUMP JUMPDEST PUSH2 0xF21 DUP7 DUP4 PUSH2 0xEDC JUMP JUMPDEST SWAP6 POP DUP1 NOT DUP5 AND SWAP4 POP DUP1 DUP7 AND DUP5 OR SWAP3 POP POP POP SWAP4 SWAP3 POP POP POP JUMP JUMPDEST PUSH0 DUP2 SWAP1 POP SWAP2 SWAP1 POP JUMP JUMPDEST PUSH0 PUSH2 0xF5C PUSH2 0xF57 PUSH2 0xF52 DUP5 PUSH2 0xABF JUMP JUMPDEST PUSH2 0xF39 JUMP JUMPDEST PUSH2 0xABF JUMP JUMPDEST SWAP1 POP SWAP2 SWAP1 POP JUMP JUMPDEST PUSH0 DUP2 SWAP1 POP SWAP2 SWAP1 POP JUMP JUMPDEST PUSH2 0xF75 DUP4 PUSH2 0xF42 JUMP JUMPDEST PUSH2 0xF89 PUSH2 0xF81 DUP3 PUSH2 0xF63 JUMP JUMPDEST DUP5 DUP5 SLOAD PUSH2 0xEE8 JUMP JUMPDEST DUP3 SSTORE POP POP POP POP JUMP JUMPDEST PUSH0 SWAP1 JUMP JUMPDEST PUSH2 0xF9D PUSH2 0xF91 JUMP JUMPDEST PUSH2 0xFA8 DUP2 DUP5 DUP5 PUSH2 0xF6C JUMP JUMPDEST POP POP POP JUMP JUMPDEST JUMPDEST DUP2 DUP2 LT ISZERO PUSH2 0xFCB JUMPI PUSH2 0xFC0 PUSH0 DUP3 PUSH2 0xF95 JUMP JUMPDEST PUSH1 0x1 DUP2 ADD SWAP1 POP PUSH2 0xFAE JUMP JUMPDEST POP POP JUMP JUMPDEST PUSH1 0x1F DUP3 GT ISZERO PUSH2 0x1010 JUMPI PUSH2 0xFE1 DUP2 PUSH2 0xEBB JUMP JUMPDEST PUSH2 0xFEA DUP5 PUSH2 0xECD JUMP JUMPDEST DUP2 ADD PUSH1 0x20 DUP6 LT ISZERO PUSH2 0xFF9 JUMPI DUP2 SWAP1 POP JUMPDEST PUSH2 0x100D PUSH2 0x1005 DUP6 PUSH2 0xECD JUMP JUMPDEST DUP4 ADD DUP3 PUSH2 0xFAD JUMP JUMPDEST POP POP JUMPDEST POP POP POP JUMP JUMPDEST PUSH0 DUP3 DUP3 SHR SWAP1 POP SWAP3 SWAP2 POP POP JUMP JUMPDEST PUSH0 PUSH2 0x1030 PUSH0 NOT DUP5 PUSH1 0x8 MUL PUSH2 0x1015 JUMP JUMPDEST NOT DUP1 DUP4 AND SWAP2 POP POP SWAP3 SWAP2 POP POP JUMP JUMPDEST PUSH0 PUSH2 0x1048 DUP4 DUP4 PUSH2 0x1021 JUMP JUMPDEST SWAP2 POP DUP3 PUSH1 0x2 MUL DUP3 OR SWAP1 POP SWAP3 SWAP2 POP POP JUMP JUMPDEST PUSH2 0x1061 DUP3 PUSH2 0xC75 JUMP JUMPDEST PUSH8 0xFFFFFFFFFFFFFFFF DUP2 GT ISZERO PUSH2 0x107A JUMPI PUSH2 0x1079 PUSH2 0x99B JUMP JUMPDEST JUMPDEST PUSH2 0x1084 DUP3 SLOAD PUSH2 0xE8B JUMP JUMPDEST PUSH2 0x108F DUP3 DUP3 DUP6 PUSH2 0xFCF JUMP JUMPDEST PUSH0 PUSH1 0x20 SWAP1 POP PUSH1 0x1F DUP4 GT PUSH1 0x1 DUP2 EQ PUSH2 0x10C0 JUMPI PUSH0 DUP5 ISZERO PUSH2 0x10AE JUMPI DUP3 DUP8 ADD MLOAD SWAP1 POP JUMPDEST PUSH2 0x10B8 DUP6 DUP3 PUSH2 0x103D JUMP JUMPDEST DUP7 SSTORE POP PUSH2 0x111F JUMP JUMPDEST PUSH1 0x1F NOT DUP5 AND PUSH2 0x10CE DUP7 PUSH2 0xEBB JUMP JUMPDEST PUSH0 JUMPDEST DUP3 DUP2 LT ISZERO PUSH2 0x10F5 JUMPI DUP5 DUP10 ADD MLOAD DUP3 SSTORE PUSH1 0x1 DUP3 ADD SWAP2 POP PUSH1 0x20 DUP6 ADD SWAP5 POP PUSH1 0x20 DUP2 ADD SWAP1 POP PUSH2 0x10D0 JUMP JUMPDEST DUP7 DUP4 LT ISZERO PUSH2 0x1112 JUMPI DUP5 DUP10 ADD MLOAD PUSH2 0x110E PUSH1 0x1F DUP10 AND DUP3 PUSH2 0x1021 JUMP JUMPDEST DUP4 SSTORE POP JUMPDEST PUSH1 0x1 PUSH1 0x2 DUP9 MUL ADD DUP9 SSTORE POP POP POP JUMPDEST POP POP POP POP POP POP JUMP JUMPDEST PUSH32 0x4E487B7100000000000000000000000000000000000000000000000000000000 PUSH0 MSTORE PUSH1 0x32 PUSH1 0x4 MSTORE PUSH1 0x24 PUSH0 REVERT JUMPDEST PUSH32 0x596F752063616E206F6E6C7920776974686472617720796F75206F776E204574 PUSH0 DUP3 ADD MSTORE PUSH32 0x6865720000000000000000000000000000000000000000000000000000000000 PUSH1 0x20 DUP3 ADD MSTORE POP JUMP JUMPDEST PUSH0 PUSH2 0x11AE PUSH1 0x23 DUP4 PUSH2 0xC7F JUMP JUMPDEST SWAP2 POP PUSH2 0x11B9 DUP3 PUSH2 0x1154 JUMP JUMPDEST PUSH1 0x40 DUP3 ADD SWAP1 POP SWAP2 SWAP1 POP JUMP JUMPDEST PUSH0 PUSH1 0x20 DUP3 ADD SWAP1 POP DUP2 DUP2 SUB PUSH0 DUP4 ADD MSTORE PUSH2 0x11DB DUP2 PUSH2 0x11A2 JUMP JUMPDEST SWAP1 POP SWAP2 SWAP1 POP JUMP JUMPDEST PUSH32 0x596F75206172656E2774207065726D697474656420746F207769746864726177 PUSH0 DUP3 ADD MSTORE PUSH32 0x20617420746869732074696D6500000000000000000000000000000000000000 PUSH1 0x20 DUP3 ADD MSTORE POP JUMP JUMPDEST PUSH0 PUSH2 0x123C PUSH1 0x2D DUP4 PUSH2 0xC7F JUMP JUMPDEST SWAP2 POP PUSH2 0x1247 DUP3 PUSH2 0x11E2 JUMP JUMPDEST PUSH1 0x40 DUP3 ADD SWAP1 POP SWAP2 SWAP1 POP JUMP JUMPDEST PUSH0 PUSH1 0x20 DUP3 ADD SWAP1 POP DUP2 DUP2 SUB PUSH0 DUP4 ADD MSTORE PUSH2 0x1269 DUP2 PUSH2 0x1230 JUMP JUMPDEST SWAP1 POP SWAP2 SWAP1 POP JUMP JUMPDEST PUSH32 0x4E487B7100000000000000000000000000000000000000000000000000000000 PUSH0 MSTORE PUSH1 0x11 PUSH1 0x4 MSTORE PUSH1 0x24 PUSH0 REVERT JUMPDEST PUSH0 PUSH2 0x12A7 DUP3 PUSH2 0xABF JUMP JUMPDEST SWAP2 POP PUSH2 0x12B2 DUP4 PUSH2 0xABF JUMP JUMPDEST SWAP3 POP DUP3 DUP3 ADD SWAP1 POP DUP1 DUP3 GT ISZERO PUSH2 0x12CA JUMPI PUSH2 0x12C9 PUSH2 0x1270 JUMP JUMPDEST JUMPDEST SWAP3 SWAP2 POP POP JUMP JUMPDEST PUSH2 0x12D9 DUP2 PUSH2 0xD51 JUMP JUMPDEST DUP3 MSTORE POP POP JUMP JUMPDEST PUSH0 PUSH1 0x60 DUP3 ADD SWAP1 POP PUSH2 0x12F2 PUSH0 DUP4 ADD DUP7 PUSH2 0x12D0 JUMP JUMPDEST PUSH2 0x12FF PUSH1 0x20 DUP4 ADD DUP6 PUSH2 0xC13 JUMP JUMPDEST PUSH2 0x130C PUSH1 0x40 DUP4 ADD DUP5 PUSH2 0xC13 JUMP JUMPDEST SWAP5 SWAP4 POP POP POP POP JUMP INVALID LOG2 PUSH5 0x6970667358 0x22 SLT KECCAK256 KECCAK256 BALANCE 0x22 EXTCODESIZE DUP14 CREATE2 REVERT 0xA8 DUP7 0x27 0x2E PUSH8 0x47B02422F4831D4F PUSH16 0x5237EA4DB5A10B551206C564736F6C63 NUMBER STOP ADDMOD BYTE STOP CALLER "
				},
				"gasEstimates": {
					"creation": {
						"codeDepositCost": "987600",
						"executionCost": "25290",
						"totalCost": "1012890"
					},
					"external": {
						"addKid(address,string,string,uint256,uint256,bool)": "infinite",
						"availableToWithdraw(address)": "infinite",
						"balanceOf()": "356",
						"deposit(address)": "infinite",
						"kids(uint256)": "infinite",
						"withdraw(address)": "infinite"
					},
					"internal": {
						"addToKidsBalance(address)": "infinite",
						"getIndex(address)": "infinite"
					}
				},
				"methodIdentifiers": {
					"addKid(address,string,string,uint256,uint256,bool)": "31d575c5",
					"availableToWithdraw(address)": "a25db8ce",
					"balanceOf()": "722713f7",
					"deposit(address)": "f340fa01",
					"kids(uint256)": "7285fd3a",
					"withdraw(address)": "51cff8d9"
				}
			},
			"storageLayout": {
				"storage": [
					{
						"astId": 3,
						"contract": "contracts/crypto_kids.sol:CryptoKids",
						"label": "owner",
						"offset": 0,
						"slot": "0",
						"type": "t_address"
					},
					{
						"astId": 37,
						"contract": "contracts/crypto_kids.sol:CryptoKids",
						"label": "kids",
						"offset": 0,
						"slot": "1",
						"type": "t_array(t_struct(Kid)33_storage)dyn_storage"
					}
				],
				"types": {
					"t_address": {
						"encoding": "inplace",
						"label": "address",
						"numberOfBytes": "20"
					},
					"t_address_payable": {
						"encoding": "inplace",
						"label": "address payable",
						"numberOfBytes": "20"
					},
					"t_array(t_struct(Kid)33_storage)dyn_storage": {
						"base": "t_struct(Kid)33_storage",
						"encoding": "dynamic_array",
						"label": "struct CryptoKids.Kid[]",
						"numberOfBytes": "32"
					},
					"t_bool": {
						"encoding": "inplace",
						"label": "bool",
						"numberOfBytes": "1"
					},
					"t_string_storage": {
						"encoding": "bytes",
						"label": "string",
						"numberOfBytes": "32"
					},
					"t_struct(Kid)33_storage": {
						"encoding": "inplace",
						"label": "struct CryptoKids.Kid",
						"members": [
							{
								"astId": 22,
								"contract": "contracts/crypto_kids.sol:CryptoKids",
								"label": "walletAddress",
								"offset": 0,
								"slot": "0",
								"type": "t_address_payable"
							},
							{
								"astId": 24,
								"contract": "contracts/crypto_kids.sol:CryptoKids",
								"label": "firstName",
								"offset": 0,
								"slot": "1",
								"type": "t_string_storage"
							},
							{
								"astId": 26,
								"contract": "contracts/crypto_kids.sol:CryptoKids",
								"label": "lastName",
								"offset": 0,
								"slot": "2",
								"type": "t_string_storage"
							},
							{
								"astId": 28,
								"contract": "contracts/crypto_kids.sol:CryptoKids",
								"label": "releaseTime",
								"offset": 0,
								"slot": "3",
								"type": "t_uint256"
							},
							{
								"astId": 30,
								"contract": "contracts/crypto_kids.sol:CryptoKids",
								"label": "amount",
								"offset": 0,
								"slot": "4",
								"type": "t_uint256"
							},
							{
								"astId": 32,
								"contract": "contracts/crypto_kids.sol:CryptoKids",
								"label": "canWithdraw",
								"offset": 0,
								"slot": "5",
								"type": "t_bool"
							}
						],
						"numberOfBytes": "192"
					},
					"t_uint256": {
						"encoding": "inplace",
						"label": "uint256",
						"numberOfBytes": "32"
					}
				}
			},
			"userdoc": {
				"kind": "user",
				"methods": {},
				"version": 1
			}
		}
	}
}